{"abi":[{"type":"constructor","inputs":[{"name":"_endpoint","type":"address","internalType":"address"},{"name":"_owner","type":"address","internalType":"address"},{"name":"_factory","type":"address","internalType":"address"}],"stateMutability":"nonpayable"},{"type":"function","name":"allowInitializePath","inputs":[{"name":"origin","type":"tuple","internalType":"struct Origin","components":[{"name":"srcEid","type":"uint32","internalType":"uint32"},{"name":"sender","type":"bytes32","internalType":"bytes32"},{"name":"nonce","type":"uint64","internalType":"uint64"}]}],"outputs":[{"name":"","type":"bool","internalType":"bool"}],"stateMutability":"view"},{"type":"function","name":"batchCrossChainClaimPayout","inputs":[{"name":"params","type":"tuple[]","internalType":"struct LayerZeroClaimPayoutParams[]","components":[{"name":"dstEid","type":"uint32","internalType":"uint32"},{"name":"options","type":"bytes","internalType":"bytes"},{"name":"claims","type":"tuple[]","internalType":"struct ClaimPayoutParams[]","components":[{"name":"payoutId","type":"uint256","internalType":"uint256"},{"name":"vault","type":"address","internalType":"address"},{"name":"designatedRecipientLeaf","type":"tuple","internalType":"struct DesignatedRecipientMerkleLeaf","components":[{"name":"payoutAmount","type":"uint256","internalType":"uint256"},{"name":"user","type":"address","internalType":"address"},{"name":"designatedRecipientIndex","type":"uint8","internalType":"uint8"}]},{"name":"designatedRecipientProof","type":"bytes32[]","internalType":"bytes32[]"},{"name":"claimInUnderlying","type":"bool","internalType":"bool"}]}]}],"outputs":[{"name":"guids","type":"bytes32[]","internalType":"bytes32[]"}],"stateMutability":"payable"},{"type":"function","name":"endpoint","inputs":[],"outputs":[{"name":"","type":"address","internalType":"contract ILayerZeroEndpointV2"}],"stateMutability":"view"},{"type":"function","name":"factory","inputs":[],"outputs":[{"name":"","type":"address","internalType":"address"}],"stateMutability":"view"},{"type":"function","name":"isComposeMsgSender","inputs":[{"name":"","type":"tuple","internalType":"struct Origin","components":[{"name":"srcEid","type":"uint32","internalType":"uint32"},{"name":"sender","type":"bytes32","internalType":"bytes32"},{"name":"nonce","type":"uint64","internalType":"uint64"}]},{"name":"","type":"bytes","internalType":"bytes"},{"name":"_sender","type":"address","internalType":"address"}],"outputs":[{"name":"","type":"bool","internalType":"bool"}],"stateMutability":"view"},{"type":"function","name":"localEid","inputs":[],"outputs":[{"name":"","type":"uint32","internalType":"uint32"}],"stateMutability":"view"},{"type":"function","name":"lzReceive","inputs":[{"name":"_origin","type":"tuple","internalType":"struct Origin","components":[{"name":"srcEid","type":"uint32","internalType":"uint32"},{"name":"sender","type":"bytes32","internalType":"bytes32"},{"name":"nonce","type":"uint64","internalType":"uint64"}]},{"name":"_guid","type":"bytes32","internalType":"bytes32"},{"name":"_message","type":"bytes","internalType":"bytes"},{"name":"_executor","type":"address","internalType":"address"},{"name":"_extraData","type":"bytes","internalType":"bytes"}],"outputs":[],"stateMutability":"payable"},{"type":"function","name":"nextNonce","inputs":[{"name":"","type":"uint32","internalType":"uint32"},{"name":"","type":"bytes32","internalType":"bytes32"}],"outputs":[{"name":"nonce","type":"uint64","internalType":"uint64"}],"stateMutability":"view"},{"type":"function","name":"oAppVersion","inputs":[],"outputs":[{"name":"senderVersion","type":"uint64","internalType":"uint64"},{"name":"receiverVersion","type":"uint64","internalType":"uint64"}],"stateMutability":"pure"},{"type":"function","name":"owner","inputs":[],"outputs":[{"name":"","type":"address","internalType":"address"}],"stateMutability":"view"},{"type":"function","name":"peers","inputs":[{"name":"eid","type":"uint32","internalType":"uint32"}],"outputs":[{"name":"peer","type":"bytes32","internalType":"bytes32"}],"stateMutability":"view"},{"type":"function","name":"quoteCrossChainClaim","inputs":[{"name":"params","type":"tuple[]","internalType":"struct LayerZeroClaimPayoutParams[]","components":[{"name":"dstEid","type":"uint32","internalType":"uint32"},{"name":"options","type":"bytes","internalType":"bytes"},{"name":"claims","type":"tuple[]","internalType":"struct ClaimPayoutParams[]","components":[{"name":"payoutId","type":"uint256","internalType":"uint256"},{"name":"vault","type":"address","internalType":"address"},{"name":"designatedRecipientLeaf","type":"tuple","internalType":"struct DesignatedRecipientMerkleLeaf","components":[{"name":"payoutAmount","type":"uint256","internalType":"uint256"},{"name":"user","type":"address","internalType":"address"},{"name":"designatedRecipientIndex","type":"uint8","internalType":"uint8"}]},{"name":"designatedRecipientProof","type":"bytes32[]","internalType":"bytes32[]"},{"name":"claimInUnderlying","type":"bool","internalType":"bool"}]}]}],"outputs":[{"name":"nativeFee","type":"uint256","internalType":"uint256"}],"stateMutability":"view"},{"type":"function","name":"renounceOwnership","inputs":[],"outputs":[],"stateMutability":"nonpayable"},{"type":"function","name":"setDelegate","inputs":[{"name":"_delegate","type":"address","internalType":"address"}],"outputs":[],"stateMutability":"nonpayable"},{"type":"function","name":"setPeer","inputs":[{"name":"_eid","type":"uint32","internalType":"uint32"},{"name":"_peer","type":"bytes32","internalType":"bytes32"}],"outputs":[],"stateMutability":"nonpayable"},{"type":"function","name":"transferOwnership","inputs":[{"name":"newOwner","type":"address","internalType":"address"}],"outputs":[],"stateMutability":"nonpayable"},{"type":"event","name":"CrossChainClaimExecuted","inputs":[{"name":"srcEid","type":"uint32","indexed":true,"internalType":"uint32"},{"name":"vault","type":"address","indexed":true,"internalType":"address"},{"name":"payoutId","type":"uint256","indexed":true,"internalType":"uint256"},{"name":"to","type":"address","indexed":false,"internalType":"address"}],"anonymous":false},{"type":"event","name":"CrossChainClaimInitiated","inputs":[{"name":"dstEid","type":"uint32","indexed":true,"internalType":"uint32"},{"name":"caller","type":"address","indexed":true,"internalType":"address"},{"name":"vault","type":"address","indexed":true,"internalType":"address"},{"name":"payoutId","type":"uint256","indexed":false,"internalType":"uint256"},{"name":"guid","type":"bytes32","indexed":false,"internalType":"bytes32"}],"anonymous":false},{"type":"event","name":"LocalClaimExecuted","inputs":[{"name":"vault","type":"address","indexed":true,"internalType":"address"},{"name":"payoutId","type":"uint256","indexed":true,"internalType":"uint256"},{"name":"to","type":"address","indexed":true,"internalType":"address"}],"anonymous":false},{"type":"event","name":"OwnershipTransferred","inputs":[{"name":"previousOwner","type":"address","indexed":true,"internalType":"address"},{"name":"newOwner","type":"address","indexed":true,"internalType":"address"}],"anonymous":false},{"type":"event","name":"PeerSet","inputs":[{"name":"eid","type":"uint32","indexed":false,"internalType":"uint32"},{"name":"peer","type":"bytes32","indexed":false,"internalType":"bytes32"}],"anonymous":false},{"type":"error","name":"EmptyArray","inputs":[]},{"type":"error","name":"InsufficientFee","inputs":[]},{"type":"error","name":"InvalidDelegate","inputs":[]},{"type":"error","name":"InvalidEndpointCall","inputs":[]},{"type":"error","name":"InvalidMessageType","inputs":[{"name":"msgType","type":"uint8","internalType":"uint8"}]},{"type":"error","name":"InvalidVault","inputs":[{"name":"vault","type":"address","internalType":"address"}]},{"type":"error","name":"LzTokenUnavailable","inputs":[]},{"type":"error","name":"NoPeer","inputs":[{"name":"eid","type":"uint32","internalType":"uint32"}]},{"type":"error","name":"NotEnoughNative","inputs":[{"name":"msgValue","type":"uint256","internalType":"uint256"}]},{"type":"error","name":"OnlyEndpoint","inputs":[{"name":"addr","type":"address","internalType":"address"}]},{"type":"error","name":"OnlyPeer","inputs":[{"name":"eid","type":"uint32","internalType":"uint32"},{"name":"sender","type":"bytes32","internalType":"bytes32"}]},{"type":"error","name":"TransferFailed","inputs":[]},{"type":"error","name":"ZeroAddress","inputs":[]}],"bytecode":{"object":"0x60e060405234801561000f575f80fd5b5060405161213638038061213683398101604081905261002e916101e5565b8282818161003b3361017b565b6001600160a01b03808316608052811661006857604051632d618d8160e21b815260040160405180910390fd5b60805160405163ca5eb5e160e01b81526001600160a01b0383811660048301529091169063ca5eb5e1906024015f604051808303815f87803b1580156100ac575f80fd5b505af11580156100be573d5f803e3d5ffd5b5050506001600160a01b03861694506100ef93505050505760405163d92e233d60e01b815260040160405180910390fd5b806001600160a01b031660a0816001600160a01b031681525050826001600160a01b031663416ecebf6040518163ffffffff1660e01b8152600401602060405180830381865afa158015610145573d5f803e3d5ffd5b505050506040513d601f19601f820116820180604052508101906101699190610225565b63ffffffff1660c0525061024f915050565b5f80546001600160a01b038381166001600160a01b0319831681178455604051919092169283917f8be0079c531659141344cd1fd0a4f28419497f9722a3daafe3b4186f6b6457e09190a35050565b80516001600160a01b03811681146101e0575f80fd5b919050565b5f805f606084860312156101f7575f80fd5b610200846101ca565b925061020e602085016101ca565b915061021c604085016101ca565b90509250925092565b5f60208284031215610235575f80fd5b815163ffffffff81168114610248575f80fd5b9392505050565b60805160a05160c051611e706102c65f395f81816101bd015281816105300152818161056d015281816108b10152610c2401525f81816102ff0152610c9f01525f818161015e015281816103800152818161096501528181610f300152818161102a0152818161112701526111dc0152611e705ff3fe6080604052600436106100ef575f3560e01c806382413eac11610087578063c45a015511610057578063c45a0155146102ee578063ca5eb5e114610321578063f2fde38b14610340578063ff7bd03d1461035f575f80fd5b806382413eac1461024b5780638da5cb5b1461027a578063a14ada9c14610296578063bb0b6a53146102c3575f80fd5b8063715018a6116100c2578063715018a61461019857806372607537146101ac5780637d25a05e146101f45780637eae4ba61461022b575f80fd5b806313137d65146100f357806317442b70146101085780633400288b1461012e5780635e280f111461014d575b5f80fd5b6101066101013660046114ed565b61037e565b005b348015610113575f80fd5b50604080516001815260026020820152015b60405180910390f35b348015610139575f80fd5b5061010661014836600461159f565b61043e565b348015610158575f80fd5b506101807f000000000000000000000000000000000000000000000000000000000000000081565b6040516001600160a01b039091168152602001610125565b3480156101a3575f80fd5b50610106610454565b3480156101b7575f80fd5b506101df7f000000000000000000000000000000000000000000000000000000000000000081565b60405163ffffffff9091168152602001610125565b3480156101ff575f80fd5b5061021361020e36600461159f565b610467565b6040516001600160401b039091168152602001610125565b61023e6102393660046115c7565b61046f565b6040516101259190611670565b348015610256575f80fd5b5061026a610265366004611689565b610842565b6040519015158152602001610125565b348015610285575f80fd5b505f546001600160a01b0316610180565b3480156102a1575f80fd5b506102b56102b03660046115c7565b610857565b604051908152602001610125565b3480156102ce575f80fd5b506102b56102dd3660046116eb565b60016020525f908152604090205481565b3480156102f9575f80fd5b506101807f000000000000000000000000000000000000000000000000000000000000000081565b34801561032c575f80fd5b5061010661033b366004611704565b61093e565b34801561034b575f80fd5b5061010661035a366004611704565b6109bf565b34801561036a575f80fd5b5061026a61037936600461171f565b610a38565b7f00000000000000000000000000000000000000000000000000000000000000006001600160a01b031633146103ce576040516391ac5e4f60e01b81523360048201526024015b60405180910390fd5b602087018035906103e8906103e3908a6116eb565b610a6c565b14610426576103fa60208801886116eb565b60405163309afaf360e21b815263ffffffff9091166004820152602088013560248201526044016103c5565b61043587878787878787610aa7565b50505050505050565b610446610b24565b6104508282610b7d565b5050565b61045c610b24565b6104655f610bd1565b565b5f5b92915050565b6060815f8190036104935760405163521299a960e01b815260040160405180910390fd5b806001600160401b038111156104ab576104ab611739565b6040519080825280602002602001820160405280156104d4578160200160208202803683370190505b5091505f805b828110156107c357368686838181106104f5576104f561174d565b90506020028101906105079190611761565b90505f610517604083018361177f565b90509050805f036105295750506107bb565b63ffffffff7f00000000000000000000000000000000000000000000000000000000000000001661055d60208401846116eb565b63ffffffff16036105ae576105a77f0000000000000000000000000000000000000000000000000000000000000000610599604085018561177f565b6105a291611a1e565b610c20565b50506107bb565b5f6105cd6105bf604085018561177f565b6105c891611a1e565b610eef565b90505f6106276105e060208601866116eb565b836105ee6020880188611a2a565b8080601f0160208091040260200160405190810160405280939291908181526020018383808284375f9201829052509250610f1b915050565b805190915034906106389088611a80565b11156106565760405162976f7560e21b815260040160405180910390fd5b5f6106c661066760208701876116eb565b846106756020890189611a2a565b8080601f0160208091040260200160405190810160405280939291908181526020018383808284375f920182905250604080518082019091528a51815260208101919091529250339150610ff99050565b9050805f01518987815181106106de576106de61174d565b602090810291909101015281516106f59088611a80565b96505f5b848110156107b4575f61070f604088018861177f565b8381811061071f5761071f61174d565b90506020028101906107319190611a93565b61073a90611aa7565b6020808201519192506001600160a01b0390911690339061075d908a018a6116eb565b63ffffffff167f615008954f52f5bfaaba957e79fe63cba7c73b425b2c68070f450b8268b982b2845f0151875f01516040516107a3929190918252602082015260400190565b60405180910390a4506001016106f9565b5050505050505b6001016104da565b508034111561083a575f336107d88334611ab2565b6040515f81818185875af1925050503d805f8114610811576040519150601f19603f3d011682016040523d82523d5f602084013e610816565b606091505b5050905080610838576040516312171d8360e31b815260040160405180910390fd5b505b505092915050565b6001600160a01b03811630145b949350505050565b5f818082036108795760405163521299a960e01b815260040160405180910390fd5b5f5b8181101561083a57368585838181106108965761089661174d565b90506020028101906108a89190611761565b905063ffffffff7f0000000000000000000000000000000000000000000000000000000000000000166108de60208301836116eb565b63ffffffff16036108ef5750610936565b5f6109006105bf604084018461177f565b90505f61092161091360208501856116eb565b836105ee6020870187611a2a565b80519091506109309087611a80565b95505050505b60010161087b565b610946610b24565b60405163ca5eb5e160e01b81526001600160a01b0382811660048301527f0000000000000000000000000000000000000000000000000000000000000000169063ca5eb5e1906024015f604051808303815f87803b1580156109a6575f80fd5b505af11580156109b8573d5f803e3d5ffd5b5050505050565b6109c7610b24565b6001600160a01b038116610a2c5760405162461bcd60e51b815260206004820152602660248201527f4f776e61626c653a206e6577206f776e657220697320746865207a65726f206160448201526564647265737360d01b60648201526084016103c5565b610a3581610bd1565b50565b5f602082018035906001908390610a4f90866116eb565b63ffffffff16815260208101919091526040015f20541492915050565b63ffffffff81165f90815260016020526040812054806104695760405163f6ff4fb760e01b815263ffffffff841660048201526024016103c5565b5f80610ab586880188611ac5565b9150915080515f03610ada5760405163521299a960e01b815260040160405180910390fd5b60ff8216600114610b03576040516305bf7a5960e51b815260ff831660048201526024016103c5565b610b19610b1360208b018b6116eb565b82610c20565b505050505050505050565b5f546001600160a01b031633146104655760405162461bcd60e51b815260206004820181905260248201527f4f776e61626c653a2063616c6c6572206973206e6f7420746865206f776e657260448201526064016103c5565b63ffffffff82165f81815260016020908152604091829020849055815192835282018390527f238399d427b947898edb290f5ff0f9109849b1c3ba196a42e35f00c50a54b98b910160405180910390a15050565b5f80546001600160a01b038381166001600160a01b0319831681178455604051919092169283917f8be0079c531659141344cd1fd0a4f28419497f9722a3daafe3b4186f6b6457e09190a35050565b80517f000000000000000000000000000000000000000000000000000000000000000063ffffffff90811690841614905f5b818110156109b8575f848281518110610c6d57610c6d61174d565b6020908102919091018101519081015160405163652b9b4160e01b81526001600160a01b0391821660048201529192507f0000000000000000000000000000000000000000000000000000000000000000169063652b9b4190602401602060405180830381865afa158015610ce4573d5f803e3d5ffd5b505050506040513d601f19601f82011682018060405250810190610d089190611b22565b610d365760208101516040516357b980d760e11b81526001600160a01b0390911660048201526024016103c5565b6020810151815160408084015181015190516337f64caf60e11b8152600481019290925260ff1660248201526001600160a01b0390911690636fec995e90604401602060405180830381865afa158015610d92573d5f803e3d5ffd5b505050506040513d601f19601f82011682018060405250810190610db69190611b22565b15610dc15750610ee7565b6020810151815160408084015160608501516080860151925163734dc4fd60e01b81526001600160a01b039095169463734dc4fd94610e069490939291600401611b3d565b5f604051808303815f87803b158015610e1d575f80fd5b505af1158015610e2f573d5f803e3d5ffd5b505050508315610e8e578060400151602001516001600160a01b0316815f015182602001516001600160a01b03167f83ebab0b7aee6f734910d85fc08b235c073cf4fc9f63ccf5c747fc6c6ca4c76160405160405180910390a4610ee5565b805160208083015160408085015183015190516001600160a01b03918216815291169163ffffffff8a16917f481ec558a5ade6c57bca9b7d60b0a540db630880df118d45de8fc8acba4d2505910160405180910390a45b505b600101610c52565b6060600182604051602001610f05929190611b95565b6040516020818303038152906040529050919050565b604080518082019091525f80825260208201527f00000000000000000000000000000000000000000000000000000000000000006001600160a01b031663ddc28c586040518060a001604052808863ffffffff168152602001610f7d89610a6c565b8152602001878152602001868152602001851515815250306040518363ffffffff1660e01b8152600401610fb2929190611cc4565b6040805180830381865afa158015610fcc573d5f803e3d5ffd5b505050506040513d601f19601f82011682018060405250810190610ff09190611d88565b95945050505050565b61100161143c565b5f61100e845f01516110ff565b602085015190915015611028576110288460200151611124565b7f00000000000000000000000000000000000000000000000000000000000000006001600160a01b0316632637a450826040518060a001604052808b63ffffffff1681526020016110788c610a6c565b81526020018a81526020018981526020015f8960200151111515815250866040518463ffffffff1660e01b81526004016110b3929190611cc4565b60806040518083038185885af11580156110cf573d5f803e3d5ffd5b50505050506040513d601f19601f820116820180604052508101906110f49190611da2565b979650505050505050565b5f813410156111205760405162976f7560e21b815260040160405180910390fd5b5090565b5f7f00000000000000000000000000000000000000000000000000000000000000006001600160a01b031663e4fe1d946040518163ffffffff1660e01b8152600401602060405180830381865afa158015611181573d5f803e3d5ffd5b505050506040513d601f19601f820116820180604052508101906111a59190611df7565b90506001600160a01b0381166111ce576040516329b99a9560e11b815260040160405180910390fd5b6040805133602482018190527f00000000000000000000000000000000000000000000000000000000000000006001600160a01b03818116604485015260648085018890528551808603909101815260849094019094526020830180516001600160e01b03166323b872dd60e01b179052610450938516928690611253908590611259565b50505050565b5f6112ad826040518060400160405280602081526020017f5361666545524332303a206c6f772d6c6576656c2063616c6c206661696c6564815250856001600160a01b031661132f9092919063ffffffff16565b80519091501561132a57808060200190518101906112cb9190611b22565b61132a5760405162461bcd60e51b815260206004820152602a60248201527f5361666545524332303a204552433230206f7065726174696f6e20646964206e6044820152691bdd081cdd58d8d9595960b21b60648201526084016103c5565b505050565b606061084f84845f85855f80866001600160a01b031685876040516113549190611e12565b5f6040518083038185875af1925050503d805f811461138e576040519150601f19603f3d011682016040523d82523d5f602084013e611393565b606091505b50915091506110f4878383876060831561140d5782515f03611406576001600160a01b0385163b6114065760405162461bcd60e51b815260206004820152601d60248201527f416464726573733a2063616c6c20746f206e6f6e2d636f6e747261637400000060448201526064016103c5565b508161084f565b61084f83838151156114225781518083602001fd5b8060405162461bcd60e51b81526004016103c59190611e28565b60405180606001604052805f80191681526020015f6001600160401b0316815260200161147a60405180604001604052805f81526020015f81525090565b905290565b5f6060828403121561148f575f80fd5b50919050565b5f8083601f8401126114a5575f80fd5b5081356001600160401b038111156114bb575f80fd5b6020830191508360208285010111156114d2575f80fd5b9250929050565b6001600160a01b0381168114610a35575f80fd5b5f805f805f805f60e0888a031215611503575f80fd5b61150d898961147f565b96506060880135955060808801356001600160401b0381111561152e575f80fd5b61153a8a828b01611495565b90965094505060a088013561154e816114d9565b925060c08801356001600160401b03811115611568575f80fd5b6115748a828b01611495565b989b979a50959850939692959293505050565b803563ffffffff8116811461159a575f80fd5b919050565b5f80604083850312156115b0575f80fd5b6115b983611587565b946020939093013593505050565b5f80602083850312156115d8575f80fd5b82356001600160401b038111156115ed575f80fd5b8301601f810185136115fd575f80fd5b80356001600160401b03811115611612575f80fd5b8560208260051b8401011115611626575f80fd5b6020919091019590945092505050565b5f8151808452602084019350602083015f5b82811015611666578151865260209586019590910190600101611648565b5093949350505050565b602081525f6116826020830184611636565b9392505050565b5f805f8060a0858703121561169c575f80fd5b6116a6868661147f565b935060608501356001600160401b038111156116c0575f80fd5b6116cc87828801611495565b90945092505060808501356116e0816114d9565b939692955090935050565b5f602082840312156116fb575f80fd5b61168282611587565b5f60208284031215611714575f80fd5b8135611682816114d9565b5f6060828403121561172f575f80fd5b611682838361147f565b634e487b7160e01b5f52604160045260245ffd5b634e487b7160e01b5f52603260045260245ffd5b5f8235605e19833603018112611775575f80fd5b9190910192915050565b5f808335601e19843603018112611794575f80fd5b8301803591506001600160401b038211156117ad575f80fd5b6020019150600581901b36038213156114d2575f80fd5b60405160a081016001600160401b03811182821017156117e6576117e6611739565b60405290565b604051606081016001600160401b03811182821017156117e6576117e6611739565b604051601f8201601f191681016001600160401b038111828210171561183657611836611739565b604052919050565b5f6001600160401b0382111561185657611856611739565b5060051b60200190565b803560ff8116811461159a575f80fd5b5f82601f83011261187f575f80fd5b813561189261188d8261183e565b61180e565b8082825260208201915060208360051b8601019250858311156118b3575f80fd5b602085015b838110156118d05780358352602092830192016118b8565b5095945050505050565b8015158114610a35575f80fd5b803561159a816118da565b5f81830360e0811215611903575f80fd5b61190b6117c4565b833581529150602083013561191f816114d9565b60208301526060603f1982011215611935575f80fd5b5061193e6117ec565b604083013581526060830135611953816114d9565b602082015261196460808401611860565b60408201528060408301525060a08201356001600160401b03811115611988575f80fd5b61199484828501611870565b6060830152506119a660c083016118e7565b608082015292915050565b5f6119be61188d8461183e565b838152905060208101600584901b8301858111156119da575f80fd5b835b81811015611a145780356001600160401b038111156119f9575f80fd5b611a05888288016118f2565b845250602092830192016119dc565b5050509392505050565b5f6116823684846119b1565b5f808335601e19843603018112611a3f575f80fd5b8301803591506001600160401b03821115611a58575f80fd5b6020019150368190038213156114d2575f80fd5b634e487b7160e01b5f52601160045260245ffd5b8082018082111561046957610469611a6c565b5f823560de19833603018112611775575f80fd5b5f61046936836118f2565b8181038181111561046957610469611a6c565b5f8060408385031215611ad6575f80fd5b611adf83611860565b915060208301356001600160401b03811115611af9575f80fd5b8301601f81018513611b09575f80fd5b611b18858235602084016119b1565b9150509250929050565b5f60208284031215611b32575f80fd5b8151611682816118da565b848152611b6d6020820185805182526020808201516001600160a01b03169083015260409081015160ff16910152565b60c060808201525f611b8260c0830185611636565b905082151560a083015295945050505050565b5f6040820160ff851683526040602084015280845180835260608501915060608160051b8601019250602086015f5b82811015611c8957605f198786030184528151805186526020808201516001600160a01b03908116828901526040808401518051828b015292830151909116606089015281015160ff16608088015260e087019050606082015160e060a0890152805191829052602001905f906101008901905b80831015611c5b5783518252602082019150602084019350600183019250611c38565b5060808401519350611c7160c08a018515159052565b97505050602094850194929092019150600101611bc4565b5092979650505050505050565b5f81518084528060208401602086015e5f602082860101526020601f19601f83011685010191505092915050565b6040815263ffffffff8351166040820152602083015160608201525f604084015160a06080840152611cf960e0840182611c96565b90506060850151603f198483030160a0850152611d168282611c96565b60809690960151151560c08501525050506001600160a01b039190911660209091015290565b5f60408284031215611d4c575f80fd5b604080519081016001600160401b0381118282101715611d6e57611d6e611739565b604052825181526020928301519281019290925250919050565b5f60408284031215611d98575f80fd5b6116828383611d3c565b5f6080828403128015611db3575f80fd5b50611dbc6117ec565b8251815260208301516001600160401b0381168114611dd9575f80fd5b6020820152611deb8460408501611d3c565b60408201529392505050565b5f60208284031215611e07575f80fd5b8151611682816114d9565b5f82518060208501845e5f920191825250919050565b602081525f6116826020830184611c9656fea2646970667358221220a8b91df8073fc702d1b645f4d93655b15197c04e57cf9f903afd19ca1b5d048164736f6c634300081a0033","linkReferences":{}},"methodIdentifiers":{"allowInitializePath((uint32,bytes32,uint64))":"ff7bd03d","batchCrossChainClaimPayout((uint32,bytes,(uint256,address,(uint256,address,uint8),bytes32[],bool)[])[])":"7eae4ba6","endpoint()":"5e280f11","factory()":"c45a0155","isComposeMsgSender((uint32,bytes32,uint64),bytes,address)":"82413eac","localEid()":"72607537","lzReceive((uint32,bytes32,uint64),bytes32,bytes,address,bytes)":"13137d65","nextNonce(uint32,bytes32)":"7d25a05e","oAppVersion()":"17442b70","owner()":"8da5cb5b","peers(uint32)":"bb0b6a53","quoteCrossChainClaim((uint32,bytes,(uint256,address,(uint256,address,uint8),bytes32[],bool)[])[])":"a14ada9c","renounceOwnership()":"715018a6","setDelegate(address)":"ca5eb5e1","setPeer(uint32,bytes32)":"3400288b","transferOwnership(address)":"f2fde38b"},"id":49}