{"abi":[{"type":"constructor","inputs":[{"name":"owner","type":"address","internalType":"address"},{"name":"evc","type":"address","internalType":"address"},{"name":"permit2","type":"address","internalType":"address"},{"name":"initialTimelock","type":"uint256","internalType":"uint256"},{"name":"_asset","type":"address","internalType":"address"},{"name":"__name","type":"string","internalType":"string"},{"name":"__symbol","type":"string","internalType":"string"}],"stateMutability":"nonpayable"},{"type":"function","name":"EVC","inputs":[],"outputs":[{"name":"","type":"address","internalType":"address"}],"stateMutability":"view"},{"type":"function","name":"acceptCap","inputs":[{"name":"id","type":"address","internalType":"contract IERC4626"}],"outputs":[],"stateMutability":"nonpayable"},{"type":"function","name":"acceptGuardian","inputs":[],"outputs":[],"stateMutability":"nonpayable"},{"type":"function","name":"acceptOwnership","inputs":[],"outputs":[],"stateMutability":"nonpayable"},{"type":"function","name":"acceptTimelock","inputs":[],"outputs":[],"stateMutability":"nonpayable"},{"type":"function","name":"allowance","inputs":[{"name":"owner","type":"address","internalType":"address"},{"name":"spender","type":"address","internalType":"address"}],"outputs":[{"name":"","type":"uint256","internalType":"uint256"}],"stateMutability":"view"},{"type":"function","name":"approve","inputs":[{"name":"spender","type":"address","internalType":"address"},{"name":"value","type":"uint256","internalType":"uint256"}],"outputs":[{"name":"","type":"bool","internalType":"bool"}],"stateMutability":"nonpayable"},{"type":"function","name":"asset","inputs":[],"outputs":[{"name":"","type":"address","internalType":"address"}],"stateMutability":"view"},{"type":"function","name":"balanceOf","inputs":[{"name":"account","type":"address","internalType":"address"}],"outputs":[{"name":"","type":"uint256","internalType":"uint256"}],"stateMutability":"view"},{"type":"function","name":"config","inputs":[{"name":"","type":"address","internalType":"contract IERC4626"}],"outputs":[{"name":"balance","type":"uint112","internalType":"uint112"},{"name":"cap","type":"uint136","internalType":"uint136"},{"name":"enabled","type":"bool","internalType":"bool"},{"name":"removableAt","type":"uint64","internalType":"uint64"}],"stateMutability":"view"},{"type":"function","name":"convertToAssets","inputs":[{"name":"shares","type":"uint256","internalType":"uint256"}],"outputs":[{"name":"","type":"uint256","internalType":"uint256"}],"stateMutability":"view"},{"type":"function","name":"convertToShares","inputs":[{"name":"assets","type":"uint256","internalType":"uint256"}],"outputs":[{"name":"","type":"uint256","internalType":"uint256"}],"stateMutability":"view"},{"type":"function","name":"creator","inputs":[],"outputs":[{"name":"","type":"address","internalType":"address"}],"stateMutability":"view"},{"type":"function","name":"curator","inputs":[],"outputs":[{"name":"","type":"address","internalType":"address"}],"stateMutability":"view"},{"type":"function","name":"decimals","inputs":[],"outputs":[{"name":"","type":"uint8","internalType":"uint8"}],"stateMutability":"view"},{"type":"function","name":"deposit","inputs":[{"name":"assets","type":"uint256","internalType":"uint256"},{"name":"receiver","type":"address","internalType":"address"}],"outputs":[{"name":"shares","type":"uint256","internalType":"uint256"}],"stateMutability":"nonpayable"},{"type":"function","name":"expectedSupplyAssets","inputs":[{"name":"id","type":"address","internalType":"contract IERC4626"}],"outputs":[{"name":"","type":"uint256","internalType":"uint256"}],"stateMutability":"view"},{"type":"function","name":"fee","inputs":[],"outputs":[{"name":"","type":"uint96","internalType":"uint96"}],"stateMutability":"view"},{"type":"function","name":"feeRecipient","inputs":[],"outputs":[{"name":"","type":"address","internalType":"address"}],"stateMutability":"view"},{"type":"function","name":"guardian","inputs":[],"outputs":[{"name":"","type":"address","internalType":"address"}],"stateMutability":"view"},{"type":"function","name":"isAllocator","inputs":[{"name":"","type":"address","internalType":"address"}],"outputs":[{"name":"","type":"bool","internalType":"bool"}],"stateMutability":"view"},{"type":"function","name":"lastTotalAssets","inputs":[],"outputs":[{"name":"","type":"uint256","internalType":"uint256"}],"stateMutability":"view"},{"type":"function","name":"lostAssets","inputs":[],"outputs":[{"name":"","type":"uint256","internalType":"uint256"}],"stateMutability":"view"},{"type":"function","name":"maxDeposit","inputs":[{"name":"","type":"address","internalType":"address"}],"outputs":[{"name":"","type":"uint256","internalType":"uint256"}],"stateMutability":"view"},{"type":"function","name":"maxMint","inputs":[{"name":"","type":"address","internalType":"address"}],"outputs":[{"name":"","type":"uint256","internalType":"uint256"}],"stateMutability":"view"},{"type":"function","name":"maxRedeem","inputs":[{"name":"owner","type":"address","internalType":"address"}],"outputs":[{"name":"","type":"uint256","internalType":"uint256"}],"stateMutability":"view"},{"type":"function","name":"maxWithdraw","inputs":[{"name":"owner","type":"address","internalType":"address"}],"outputs":[{"name":"assets","type":"uint256","internalType":"uint256"}],"stateMutability":"view"},{"type":"function","name":"maxWithdrawFromStrategy","inputs":[{"name":"id","type":"address","internalType":"contract IERC4626"}],"outputs":[{"name":"","type":"uint256","internalType":"uint256"}],"stateMutability":"view"},{"type":"function","name":"mint","inputs":[{"name":"shares","type":"uint256","internalType":"uint256"},{"name":"receiver","type":"address","internalType":"address"}],"outputs":[{"name":"assets","type":"uint256","internalType":"uint256"}],"stateMutability":"nonpayable"},{"type":"function","name":"name","inputs":[],"outputs":[{"name":"","type":"string","internalType":"string"}],"stateMutability":"view"},{"type":"function","name":"owner","inputs":[],"outputs":[{"name":"","type":"address","internalType":"address"}],"stateMutability":"view"},{"type":"function","name":"pendingCap","inputs":[{"name":"","type":"address","internalType":"contract IERC4626"}],"outputs":[{"name":"value","type":"uint136","internalType":"uint136"},{"name":"validAt","type":"uint64","internalType":"uint64"}],"stateMutability":"view"},{"type":"function","name":"pendingGuardian","inputs":[],"outputs":[{"name":"value","type":"address","internalType":"address"},{"name":"validAt","type":"uint64","internalType":"uint64"}],"stateMutability":"view"},{"type":"function","name":"pendingOwner","inputs":[],"outputs":[{"name":"","type":"address","internalType":"address"}],"stateMutability":"view"},{"type":"function","name":"pendingTimelock","inputs":[],"outputs":[{"name":"value","type":"uint136","internalType":"uint136"},{"name":"validAt","type":"uint64","internalType":"uint64"}],"stateMutability":"view"},{"type":"function","name":"permit2Address","inputs":[],"outputs":[{"name":"","type":"address","internalType":"address"}],"stateMutability":"view"},{"type":"function","name":"previewDeposit","inputs":[{"name":"assets","type":"uint256","internalType":"uint256"}],"outputs":[{"name":"","type":"uint256","internalType":"uint256"}],"stateMutability":"view"},{"type":"function","name":"previewMint","inputs":[{"name":"shares","type":"uint256","internalType":"uint256"}],"outputs":[{"name":"","type":"uint256","internalType":"uint256"}],"stateMutability":"view"},{"type":"function","name":"previewRedeem","inputs":[{"name":"shares","type":"uint256","internalType":"uint256"}],"outputs":[{"name":"","type":"uint256","internalType":"uint256"}],"stateMutability":"view"},{"type":"function","name":"previewWithdraw","inputs":[{"name":"assets","type":"uint256","internalType":"uint256"}],"outputs":[{"name":"","type":"uint256","internalType":"uint256"}],"stateMutability":"view"},{"type":"function","name":"protocolFee","inputs":[],"outputs":[{"name":"","type":"uint96","internalType":"uint96"}],"stateMutability":"view"},{"type":"function","name":"protocolFeeRecipient","inputs":[],"outputs":[{"name":"","type":"address","internalType":"address"}],"stateMutability":"view"},{"type":"function","name":"reallocate","inputs":[{"name":"allocations","type":"tuple[]","internalType":"struct MarketAllocation[]","components":[{"name":"id","type":"address","internalType":"contract IERC4626"},{"name":"assets","type":"uint256","internalType":"uint256"}]}],"outputs":[],"stateMutability":"nonpayable"},{"type":"function","name":"redeem","inputs":[{"name":"shares","type":"uint256","internalType":"uint256"},{"name":"receiver","type":"address","internalType":"address"},{"name":"owner","type":"address","internalType":"address"}],"outputs":[{"name":"assets","type":"uint256","internalType":"uint256"}],"stateMutability":"nonpayable"},{"type":"function","name":"renounceOwnership","inputs":[],"outputs":[],"stateMutability":"nonpayable"},{"type":"function","name":"revokePendingCap","inputs":[{"name":"id","type":"address","internalType":"contract IERC4626"}],"outputs":[],"stateMutability":"nonpayable"},{"type":"function","name":"revokePendingGuardian","inputs":[],"outputs":[],"stateMutability":"nonpayable"},{"type":"function","name":"revokePendingMarketRemoval","inputs":[{"name":"id","type":"address","internalType":"contract IERC4626"}],"outputs":[],"stateMutability":"nonpayable"},{"type":"function","name":"revokePendingTimelock","inputs":[],"outputs":[],"stateMutability":"nonpayable"},{"type":"function","name":"setCurator","inputs":[{"name":"newCurator","type":"address","internalType":"address"}],"outputs":[],"stateMutability":"nonpayable"},{"type":"function","name":"setFee","inputs":[{"name":"newFee","type":"uint256","internalType":"uint256"}],"outputs":[],"stateMutability":"nonpayable"},{"type":"function","name":"setFeeRecipient","inputs":[{"name":"newFeeRecipient","type":"address","internalType":"address"}],"outputs":[],"stateMutability":"nonpayable"},{"type":"function","name":"setIsAllocator","inputs":[{"name":"newAllocator","type":"address","internalType":"address"},{"name":"newIsAllocator","type":"bool","internalType":"bool"}],"outputs":[],"stateMutability":"nonpayable"},{"type":"function","name":"setProtocolFee","inputs":[{"name":"newProtocolFee","type":"uint256","internalType":"uint256"}],"outputs":[],"stateMutability":"nonpayable"},{"type":"function","name":"setProtocolFeeRecipient","inputs":[{"name":"newProtocolFeeRecipient","type":"address","internalType":"address"}],"outputs":[],"stateMutability":"nonpayable"},{"type":"function","name":"setSupplyQueue","inputs":[{"name":"newSupplyQueue","type":"address[]","internalType":"contract IERC4626[]"}],"outputs":[],"stateMutability":"nonpayable"},{"type":"function","name":"submitCap","inputs":[{"name":"id","type":"address","internalType":"contract IERC4626"},{"name":"newSupplyCap","type":"uint256","internalType":"uint256"}],"outputs":[],"stateMutability":"nonpayable"},{"type":"function","name":"submitGuardian","inputs":[{"name":"newGuardian","type":"address","internalType":"address"}],"outputs":[],"stateMutability":"nonpayable"},{"type":"function","name":"submitMarketRemoval","inputs":[{"name":"id","type":"address","internalType":"contract IERC4626"}],"outputs":[],"stateMutability":"nonpayable"},{"type":"function","name":"submitTimelock","inputs":[{"name":"newTimelock","type":"uint256","internalType":"uint256"}],"outputs":[],"stateMutability":"nonpayable"},{"type":"function","name":"supplyQueue","inputs":[{"name":"","type":"uint256","internalType":"uint256"}],"outputs":[{"name":"","type":"address","internalType":"contract IERC4626"}],"stateMutability":"view"},{"type":"function","name":"supplyQueueLength","inputs":[],"outputs":[{"name":"","type":"uint256","internalType":"uint256"}],"stateMutability":"view"},{"type":"function","name":"symbol","inputs":[],"outputs":[{"name":"","type":"string","internalType":"string"}],"stateMutability":"view"},{"type":"function","name":"timelock","inputs":[],"outputs":[{"name":"","type":"uint256","internalType":"uint256"}],"stateMutability":"view"},{"type":"function","name":"totalAssets","inputs":[],"outputs":[{"name":"","type":"uint256","internalType":"uint256"}],"stateMutability":"view"},{"type":"function","name":"totalSupply","inputs":[],"outputs":[{"name":"","type":"uint256","internalType":"uint256"}],"stateMutability":"view"},{"type":"function","name":"transfer","inputs":[{"name":"to","type":"address","internalType":"address"},{"name":"value","type":"uint256","internalType":"uint256"}],"outputs":[{"name":"","type":"bool","internalType":"bool"}],"stateMutability":"nonpayable"},{"type":"function","name":"transferFrom","inputs":[{"name":"from","type":"address","internalType":"address"},{"name":"to","type":"address","internalType":"address"},{"name":"value","type":"uint256","internalType":"uint256"}],"outputs":[{"name":"","type":"bool","internalType":"bool"}],"stateMutability":"nonpayable"},{"type":"function","name":"transferOwnership","inputs":[{"name":"newOwner","type":"address","internalType":"address"}],"outputs":[],"stateMutability":"nonpayable"},{"type":"function","name":"updateWithdrawQueue","inputs":[{"name":"indexes","type":"uint256[]","internalType":"uint256[]"}],"outputs":[],"stateMutability":"nonpayable"},{"type":"function","name":"withdraw","inputs":[{"name":"assets","type":"uint256","internalType":"uint256"},{"name":"receiver","type":"address","internalType":"address"},{"name":"owner","type":"address","internalType":"address"}],"outputs":[{"name":"shares","type":"uint256","internalType":"uint256"}],"stateMutability":"nonpayable"},{"type":"function","name":"withdrawQueue","inputs":[{"name":"","type":"uint256","internalType":"uint256"}],"outputs":[{"name":"","type":"address","internalType":"contract IERC4626"}],"stateMutability":"view"},{"type":"function","name":"withdrawQueueLength","inputs":[],"outputs":[{"name":"","type":"uint256","internalType":"uint256"}],"stateMutability":"view"},{"type":"event","name":"AccrueInterest","inputs":[{"name":"newTotalAssets","type":"uint256","indexed":false,"internalType":"uint256"},{"name":"feeShares","type":"uint256","indexed":false,"internalType":"uint256"},{"name":"protocolFeeShares","type":"uint256","indexed":false,"internalType":"uint256"}],"anonymous":false},{"type":"event","name":"Approval","inputs":[{"name":"owner","type":"address","indexed":true,"internalType":"address"},{"name":"spender","type":"address","indexed":true,"internalType":"address"},{"name":"value","type":"uint256","indexed":false,"internalType":"uint256"}],"anonymous":false},{"type":"event","name":"Deposit","inputs":[{"name":"sender","type":"address","indexed":true,"internalType":"address"},{"name":"owner","type":"address","indexed":true,"internalType":"address"},{"name":"assets","type":"uint256","indexed":false,"internalType":"uint256"},{"name":"shares","type":"uint256","indexed":false,"internalType":"uint256"}],"anonymous":false},{"type":"event","name":"OwnershipTransferStarted","inputs":[{"name":"previousOwner","type":"address","indexed":true,"internalType":"address"},{"name":"newOwner","type":"address","indexed":true,"internalType":"address"}],"anonymous":false},{"type":"event","name":"OwnershipTransferred","inputs":[{"name":"previousOwner","type":"address","indexed":true,"internalType":"address"},{"name":"newOwner","type":"address","indexed":true,"internalType":"address"}],"anonymous":false},{"type":"event","name":"RevokePendingCap","inputs":[{"name":"caller","type":"address","indexed":true,"internalType":"address"},{"name":"id","type":"address","indexed":true,"internalType":"contract IERC4626"}],"anonymous":false},{"type":"event","name":"RevokePendingGuardian","inputs":[{"name":"caller","type":"address","indexed":true,"internalType":"address"}],"anonymous":false},{"type":"event","name":"RevokePendingMarketRemoval","inputs":[{"name":"caller","type":"address","indexed":true,"internalType":"address"},{"name":"id","type":"address","indexed":true,"internalType":"contract IERC4626"}],"anonymous":false},{"type":"event","name":"RevokePendingTimelock","inputs":[{"name":"caller","type":"address","indexed":true,"internalType":"address"}],"anonymous":false},{"type":"event","name":"SetCurator","inputs":[{"name":"newCurator","type":"address","indexed":true,"internalType":"address"}],"anonymous":false},{"type":"event","name":"SetFee","inputs":[{"name":"caller","type":"address","indexed":true,"internalType":"address"},{"name":"newFee","type":"uint256","indexed":false,"internalType":"uint256"}],"anonymous":false},{"type":"event","name":"SetFeeRecipient","inputs":[{"name":"newFeeRecipient","type":"address","indexed":true,"internalType":"address"}],"anonymous":false},{"type":"event","name":"SetGuardian","inputs":[{"name":"caller","type":"address","indexed":true,"internalType":"address"},{"name":"guardian","type":"address","indexed":true,"internalType":"address"}],"anonymous":false},{"type":"event","name":"SetIsAllocator","inputs":[{"name":"allocator","type":"address","indexed":true,"internalType":"address"},{"name":"isAllocator","type":"bool","indexed":false,"internalType":"bool"}],"anonymous":false},{"type":"event","name":"SetProtocolFee","inputs":[{"name":"caller","type":"address","indexed":true,"internalType":"address"},{"name":"newProtocolFee","type":"uint256","indexed":false,"internalType":"uint256"}],"anonymous":false},{"type":"event","name":"SetProtocolFeeRecipient","inputs":[{"name":"newProtocolFeeRecipient","type":"address","indexed":true,"internalType":"address"}],"anonymous":false},{"type":"event","name":"SetSupplyQueue","inputs":[{"name":"caller","type":"address","indexed":true,"internalType":"address"},{"name":"newSupplyQueue","type":"address[]","indexed":false,"internalType":"contract IERC4626[]"}],"anonymous":false},{"type":"event","name":"SetTimelock","inputs":[{"name":"caller","type":"address","indexed":true,"internalType":"address"},{"name":"newTimelock","type":"uint256","indexed":false,"internalType":"uint256"}],"anonymous":false},{"type":"event","name":"SetWithdrawQueue","inputs":[{"name":"caller","type":"address","indexed":true,"internalType":"address"},{"name":"newWithdrawQueue","type":"address[]","indexed":false,"internalType":"contract IERC4626[]"}],"anonymous":false},{"type":"event","name":"SubmitGuardian","inputs":[{"name":"newGuardian","type":"address","indexed":true,"internalType":"address"}],"anonymous":false},{"type":"event","name":"SubmitMarketRemoval","inputs":[{"name":"caller","type":"address","indexed":true,"internalType":"address"},{"name":"id","type":"address","indexed":true,"internalType":"contract IERC4626"}],"anonymous":false},{"type":"event","name":"SubmitTimelock","inputs":[{"name":"newTimelock","type":"uint256","indexed":false,"internalType":"uint256"}],"anonymous":false},{"type":"event","name":"Transfer","inputs":[{"name":"from","type":"address","indexed":true,"internalType":"address"},{"name":"to","type":"address","indexed":true,"internalType":"address"},{"name":"value","type":"uint256","indexed":false,"internalType":"uint256"}],"anonymous":false},{"type":"event","name":"UpdateLastTotalAssets","inputs":[{"name":"updatedTotalAssets","type":"uint256","indexed":false,"internalType":"uint256"}],"anonymous":false},{"type":"event","name":"UpdateLostAssets","inputs":[{"name":"newLostAssets","type":"uint256","indexed":false,"internalType":"uint256"}],"anonymous":false},{"type":"event","name":"Withdraw","inputs":[{"name":"sender","type":"address","indexed":true,"internalType":"address"},{"name":"receiver","type":"address","indexed":true,"internalType":"address"},{"name":"owner","type":"address","indexed":true,"internalType":"address"},{"name":"assets","type":"uint256","indexed":false,"internalType":"uint256"},{"name":"shares","type":"uint256","indexed":false,"internalType":"uint256"}],"anonymous":false},{"type":"error","name":"AboveMaxTimelock","inputs":[]},{"type":"error","name":"AlreadyPending","inputs":[]},{"type":"error","name":"AlreadySet","inputs":[]},{"type":"error","name":"BadAssetReceiver","inputs":[]},{"type":"error","name":"BelowMinTimelock","inputs":[]},{"type":"error","name":"ControllerDisabled","inputs":[]},{"type":"error","name":"ERC20InsufficientAllowance","inputs":[{"name":"spender","type":"address","internalType":"address"},{"name":"allowance","type":"uint256","internalType":"uint256"},{"name":"needed","type":"uint256","internalType":"uint256"}]},{"type":"error","name":"ERC20InsufficientBalance","inputs":[{"name":"sender","type":"address","internalType":"address"},{"name":"balance","type":"uint256","internalType":"uint256"},{"name":"needed","type":"uint256","internalType":"uint256"}]},{"type":"error","name":"ERC20InvalidApprover","inputs":[{"name":"approver","type":"address","internalType":"address"}]},{"type":"error","name":"ERC20InvalidReceiver","inputs":[{"name":"receiver","type":"address","internalType":"address"}]},{"type":"error","name":"ERC20InvalidSender","inputs":[{"name":"sender","type":"address","internalType":"address"}]},{"type":"error","name":"ERC20InvalidSpender","inputs":[{"name":"spender","type":"address","internalType":"address"}]},{"type":"error","name":"ERC4626ExceededMaxDeposit","inputs":[{"name":"receiver","type":"address","internalType":"address"},{"name":"assets","type":"uint256","internalType":"uint256"},{"name":"max","type":"uint256","internalType":"uint256"}]},{"type":"error","name":"ERC4626ExceededMaxMint","inputs":[{"name":"receiver","type":"address","internalType":"address"},{"name":"shares","type":"uint256","internalType":"uint256"},{"name":"max","type":"uint256","internalType":"uint256"}]},{"type":"error","name":"ERC4626ExceededMaxRedeem","inputs":[{"name":"owner","type":"address","internalType":"address"},{"name":"shares","type":"uint256","internalType":"uint256"},{"name":"max","type":"uint256","internalType":"uint256"}]},{"type":"error","name":"ERC4626ExceededMaxWithdraw","inputs":[{"name":"owner","type":"address","internalType":"address"},{"name":"assets","type":"uint256","internalType":"uint256"},{"name":"max","type":"uint256","internalType":"uint256"}]},{"type":"error","name":"EVC_InvalidAddress","inputs":[]},{"type":"error","name":"MarketNotEnabled","inputs":[{"name":"id","type":"address","internalType":"contract IERC4626"}]},{"type":"error","name":"MaxFeeExceeded","inputs":[]},{"type":"error","name":"NoPendingValue","inputs":[]},{"type":"error","name":"NonZeroCap","inputs":[]},{"type":"error","name":"NotAllocatorRole","inputs":[]},{"type":"error","name":"NotAuthorized","inputs":[]},{"type":"error","name":"NotCuratorNorGuardianRole","inputs":[]},{"type":"error","name":"NotCuratorRole","inputs":[]},{"type":"error","name":"NotGuardianRole","inputs":[]},{"type":"error","name":"OwnableInvalidOwner","inputs":[{"name":"owner","type":"address","internalType":"address"}]},{"type":"error","name":"OwnableUnauthorizedAccount","inputs":[{"name":"account","type":"address","internalType":"address"}]},{"type":"error","name":"PendingCap","inputs":[{"name":"id","type":"address","internalType":"contract IERC4626"}]},{"type":"error","name":"ReentrancyGuardReentrantCall","inputs":[]},{"type":"error","name":"SafeERC20FailedOperation","inputs":[{"name":"token","type":"address","internalType":"address"}]},{"type":"error","name":"TimelockNotElapsed","inputs":[]},{"type":"error","name":"UnauthorizedMarket","inputs":[{"name":"id","type":"address","internalType":"contract IERC4626"}]},{"type":"error","name":"ZeroFeeRecipient","inputs":[]},{"type":"error","name":"ZeroProtocolFeeRecipient","inputs":[]},{"type":"error","name":"ZeroShares","inputs":[]}],"bytecode":{"object":"0x610120604052348015610010575f80fd5b5060405161469438038061469483398101604081905261002f91610459565b60015f5585878484846004610044838261058d565b506005610051828261058d565b5050505f806100658361012360201b60201c565b9150915081610075576012610077565b805b60ff1660a05250506001600160a01b0390811660805281166100b257604051631e4fbdf760e01b81525f600482015260240160405180910390fd5b6100bb816101f9565b506001600160a01b0381166100e357604051638133abd160e01b815260040160405180910390fd5b6001600160a01b031660c05283156100fe576100fe84610215565b6101078461025d565b505050506001600160a01b031660e052505033610100526106ad565b60408051600481526024810182526020810180516001600160e01b031663313ce56760e01b17905290515f918291829182916001600160a01b0387169161016991610647565b5f60405180830381855afa9150503d805f81146101a1576040519150601f19603f3d011682016040523d82523d5f602084013e6101a6565b606091505b50915091508180156101ba57506020815110155b156101ed575f818060200190518101906101d4919061065d565b905060ff81116101eb576001969095509350505050565b505b505f9485945092505050565b600780546001600160a01b0319169055610212816102bf565b50565b62127500811115610239576040516346fedb5760e01b815260040160405180910390fd5b6201518081101561021257604051631a1593df60e11b815260040160405180910390fd5b600c81905561026a610310565b6001600160a01b03167fd28e9b90ee9b37c5936ff84392d71f29ff18117d7e76bcee60615262a90a3f75826040516102a491815260200190565b60405180910390a250600f80546001600160c81b0319169055565b600680546001600160a01b038381166001600160a01b0319831681179093556040519116919082907f8be0079c531659141344cd1fd0a4f28419497f9722a3daafe3b4186f6b6457e0905f90a35050565b5f61031961031e565b905090565b60c0515f9033906001600160a01b031681036103a15760c051604051630c281d0f60e11b81525f60048201526001600160a01b03909116906318503a1e906024016040805180830381865afa158015610379573d5f803e3d5ffd5b505050506040513d601f19601f8201168201806040525081019061039d9190610674565b5090505b919050565b80516001600160a01b03811681146103a1575f80fd5b634e487b7160e01b5f52604160045260245ffd5b5f82601f8301126103df575f80fd5b81516001600160401b038111156103f8576103f86103bc565b604051601f8201601f19908116603f011681016001600160401b0381118282101715610426576104266103bc565b60405281815283820160200185101561043d575f80fd5b8160208501602083015e5f918101602001919091529392505050565b5f805f805f805f60e0888a03121561046f575f80fd5b610478886103a6565b9650610486602089016103a6565b9550610494604089016103a6565b606089015190955093506104aa608089016103a6565b60a08901519093506001600160401b038111156104c5575f80fd5b6104d18a828b016103d0565b60c08a015190935090506001600160401b038111156104ee575f80fd5b6104fa8a828b016103d0565b91505092959891949750929550565b600181811c9082168061051d57607f821691505b60208210810361053b57634e487b7160e01b5f52602260045260245ffd5b50919050565b601f82111561058857805f5260205f20601f840160051c810160208510156105665750805b601f840160051c820191505b81811015610585575f8155600101610572565b50505b505050565b81516001600160401b038111156105a6576105a66103bc565b6105ba816105b48454610509565b84610541565b6020601f8211600181146105ec575f83156105d55750848201515b5f19600385901b1c1916600184901b178455610585565b5f84815260208120601f198516915b8281101561061b57878501518255602094850194600190920191016105fb565b508482101561063857868401515f19600387901b60f8161c191681555b50505050600190811b01905550565b5f82518060208501845e5f920191825250919050565b5f6020828403121561066d575f80fd5b5051919050565b5f8060408385031215610685575f80fd5b61068e836103a6565b9150602083015180151581146106a2575f80fd5b809150509250929050565b60805160a05160c05160e05161010051613f4f6107455f395f81816104460152818161154d0152611d9701525f8181610991015261264601525f81816108a501528181612aa501528181612d4e01528181612d89015281816133a1015281816133ca01526134c201525f610c5e01525f81816105c801528181611d5901528181612621015281816128cf01526132700152613f4f5ff3fe608060405234801561000f575f80fd5b5060043610610422575f3560e01c806381bc23a61161022c578063be9c580011610135578063ddca3f43116100bf578063e90956cf11610084578063e90956cf14610aa5578063ee7a4b3314610ab8578063ef8b30f7146109c6578063f2fde38b14610acb578063f7d1852114610ade575f80fd5b8063ddca3f4314610a48578063e30c397814610a5b578063e521cb9214610a6c578063e66f53b714610a7f578063e74b981b14610a92575f80fd5b8063c9649aa911610105578063c9649aa9146109d9578063ce96cb77146109e1578063d33219b4146109f4578063d905777e146109fd578063dd62ed3e14610a10575f80fd5b8063be9c580014610979578063c52249831461098c578063c63d75b6146109b3578063c6e6f592146109c6575f80fd5b8063a70354a1116101b6578063b192a84a11610186578063b192a84a1461091a578063b3d7f6b91461092d578063b460af9414610940578063b65dbf5614610953578063ba08765214610966575f80fd5b8063a70354a1146108a3578063a9059cbb146108c9578063ac88990c146108dc578063b0e21e8a146108ef575f80fd5b806395d89b41116101fc57806395d89b411461083e578063987ee783146108465780639d6b4a4514610880578063a17b313014610893578063a5f31d611461089b575f80fd5b806381bc23a6146107ff5780638a2c7b39146108125780638da5cb5b1461081a57806394bf804d1461082b575f80fd5b8063469048401161032e57806369fe0e2d116102b85780637224a512116102885780637224a51214610739578063762c31ba1461074c578063787dce3d1461079857806379ba5097146107ab5780637cc4d9a1146107b3575f80fd5b806369fe0e2d146106e35780636e553f65146106f657806370a0823114610709578063715018a614610731575f80fd5b8063568efc07116102fe578063568efc07146106875780635897a06d1461069057806362518ddf146106a357806364df049e146106b65780636623b575146106d0575f80fd5b806346904840146106385780634cdad506146104955780634dedf20e146106525780634e083eb314610674575f80fd5b806321cb4b14116103af57806338d52e0f1161037f57806338d52e0f146105c65780633a72efdf146105ec578063402d267d146105ff57806341b6783314610612578063452a932014610625575f80fd5b806321cb4b141461058857806323b872dd14610591578063313ce567146105a457806333f91ebb146105be575f80fd5b8063095ea7b3116103f5578063095ea7b3146104a85780630a28a477146104cb5780630e68ec95146104de57806318160ddd146105765780631ecca77c1461057e575f80fd5b806301e1d1141461042657806302d05d3f1461044157806306fdde031461048057806307a2d13a14610495575b5f80fd5b61042e610af1565b6040519081526020015b60405180910390f35b6104687f000000000000000000000000000000000000000000000000000000000000000081565b6040516001600160a01b039091168152602001610438565b610488610b03565b60405161043891906137a6565b61042e6104a33660046137db565b610b93565b6104bb6104b6366004613806565b610ba4565b6040519015158152602001610438565b61042e6104d93660046137db565b610bc5565b6105356104ec366004613830565b600b6020525f9081526040902080546001909101546001600160701b03821691600160701b81046001600160881b031691600160f81b90910460ff16906001600160401b031684565b604080516001600160701b0390951685526001600160881b039093166020850152901515918301919091526001600160401b03166060820152608001610438565b60035461042e565b610586610bd1565b005b61042e60155481565b6104bb61059f36600461384b565b610c28565b6105ac610c57565b60405160ff9091168152602001610438565b60135461042e565b7f0000000000000000000000000000000000000000000000000000000000000000610468565b6105866105fa366004613830565b610c87565b61042e61060d366004613830565b610cf4565b6105866106203660046138d0565b610d1d565b600a54610468906001600160a01b031681565b60105461046890600160601b90046001600160a01b031681565b6104bb610660366004613830565b60096020525f908152604090205460ff1681565b6105866106823660046138d0565b610e0a565b61042e60145481565b61058661069e366004613830565b610ecc565b6104686106b13660046137db565b611083565b60115461046890600160601b90046001600160a01b031681565b61042e6106de366004613830565b6110ab565b6105866106f13660046137db565b61112b565b61042e61070436600461390e565b611256565b61042e610717366004613830565b6001600160a01b03165f9081526001602052604090205490565b6105866112bb565b6105866107473660046137db565b6112ce565b600d54610771906001600160a01b03811690600160a01b90046001600160401b031682565b604080516001600160a01b0390931683526001600160401b03909116602083015201610438565b6105866107a63660046137db565b61138d565b61058661149b565b600f546107d8906001600160881b03811690600160881b90046001600160401b031682565b604080516001600160881b0390931683526001600160401b03909116602083015201610438565b61058661080d366004613830565b6114fd565b61058661160e565b6006546001600160a01b0316610468565b61042e61083936600461390e565b61163f565b61048861167c565b6107d8610854366004613830565b600e6020525f90815260409020546001600160881b03811690600160881b90046001600160401b031682565b61058661088e366004613830565b61168b565b60125461042e565b610586611753565b7f0000000000000000000000000000000000000000000000000000000000000000610468565b6104bb6108d7366004613806565b611784565b6105866108ea366004613830565b61179b565b601154610902906001600160601b031681565b6040516001600160601b039091168152602001610438565b610586610928366004613949565b61180c565b61042e61093b3660046137db565b6118ab565b61042e61094e366004613975565b6118b7565b61042e610961366004613830565b6118fe565b61042e610974366004613975565b61197e565b6105866109873660046139b4565b61199d565b6104687f000000000000000000000000000000000000000000000000000000000000000081565b61042e6109c1366004613830565b611a27565b61042e6109d43660046137db565b611a3d565b610586611a48565b61042e6109ef366004613830565b611a9f565b61042e600c5481565b61042e610a0b366004613830565b611ab2565b61042e610a1e366004613a23565b6001600160a01b039182165f90815260026020908152604080832093909416825291909152205490565b601054610902906001600160601b031681565b6007546001600160a01b0316610468565b610586610a7a366004613830565b611ada565b600854610468906001600160a01b031681565b610586610aa0366004613830565b611bc1565b610586610ab3366004613830565b611ca5565b610586610ac6366004613806565b611d25565b610586610ad9366004613830565b611ec2565b610468610aec3660046137db565b611f33565b5f80610afb611f42565b509392505050565b606060048054610b1290613a4f565b80601f0160208091040260200160405190810160405280929190818152602001828054610b3e90613a4f565b8015610b895780601f10610b6057610100808354040283529160200191610b89565b820191905f5260205f20905b815481529060010190602001808311610b6c57829003601f168201915b5050505050905090565b5f610b9e825f61204d565b92915050565b5f80610bae61207c565b9050610bbb818585612085565b5060019392505050565b5f610b9e826001612097565b610bd96120c6565b600d80546001600160e01b0319169055610bf161207c565b6001600160a01b03167fc40a085ccfa20f5fd518ade5c3a77a7ecbdfbb4c75efcdca6146a8e3c841d66360405160405180910390a2565b5f80610c3261207c565b9050610c3f858285612130565b610c4a8585856121ac565b60019150505b9392505050565b5f610c82817f0000000000000000000000000000000000000000000000000000000000000000613a9b565b905090565b610c8f612209565b6001600160a01b0381165f818152600e6020526040902080546001600160c81b0319169055610cbc61207c565b6001600160a01b03167f23edd264f2dcc193d13a29cdab4ac169d60d9b4a0e74f0303c753036d8eb1c1360405160405180910390a350565b5f80610cfe612279565b9050610d0a815f612097565b15610d155780610c50565b5f9392505050565b610d25612378565b604051630f159b6b60e01b815273__$f534e9a5cc3614ed641270b99faa262c3f$__90630f159b6b90610d6790600b90600e9060139088908890600401613ab4565b5f60405180830381865af4158015610d81573d5f803e3d5ffd5b505050506040513d5f823e601f3d908101601f19168201604052610da89190810190613b62565b8051610dbc916013916020909101906136e2565b50610dc561207c565b6001600160a01b03167f834ae37621cd31f2636b1cb6f1bded844d79ecf755af866b5d896da642d7b5676013604051610dfe9190613c2a565b60405180910390a25050565b610e12612378565b60405163220ec4ed60e21b815273__$f534e9a5cc3614ed641270b99faa262c3f$__9063883b13b490610e4e90600b9086908690600401613c78565b5f6040518083038186803b158015610e64575f80fd5b505af4158015610e76573d5f803e3d5ffd5b50610e8992506012915084905083613741565b50610e9261207c565b6001600160a01b03167fb07686dd0abe7422b9801e8f38bafd24669a65591071f11120c2f6a7c175813e8383604051610dfe929190613cc1565b610ed46123f2565b6001600160a01b0381165f908152600b60205260409020600101546001600160401b031615610f16576040516324d9026760e11b815260040160405180910390fd5b6001600160a01b0381165f908152600b6020526040902054600160701b90046001600160881b031615610f5c5760405163624718b960e11b815260040160405180910390fd5b6001600160a01b0381165f908152600b6020526040902054600160f81b900460ff16610fab57604051632215cda760e01b81526001600160a01b03821660048201526024015b60405180910390fd5b6001600160a01b0381165f908152600e6020526040902054600160881b90046001600160401b031615610ffc57604051634fc6b6fd60e01b81526001600160a01b0382166004820152602401610fa2565b600c546110099042613d0d565b6001600160a01b0382165f818152600b60205260409020600101805467ffffffffffffffff19166001600160401b03939093169290921790915561104b61207c565b6001600160a01b03167f354f25f4208ab6528fb2d016019c0e2a66f51376cbb2cc8571064779735d348560405160405180910390a350565b60138181548110611092575f80fd5b5f918252602090912001546001600160a01b0316905081565b6001600160a01b0381165f818152600b602052604080822054905163266d6a8360e11b81526001600160701b039091166004820152909190634cdad50690602401602060405180830381865afa158015611107573d5f803e3d5ffd5b505050506040513d601f19601f82011682018060405250810190610b9e9190613d20565b611133612448565b61113b612470565b6010546001600160601b031681036111665760405163a741a04560e01b815260040160405180910390fd5b670de0b6b3a764000081111561118f5760405163f4df6ae560e01b815260040160405180910390fd5b80158015906111ae5750601054600160601b90046001600160a01b0316155b156111cc576040516333fe7c6560e21b815260040160405180910390fd5b6111d46124ce565b601080546bffffffffffffffffffffffff19166001600160601b0383161790556111fc61207c565b6010546040516001600160601b0390911681526001600160a01b0391909116907f01fe2943baee27f47add82886c2200f910c749c461c9b63c5fe83901a53bdb49906020015b60405180910390a261125360015f55565b50565b5f61125f612448565b6112676124ce565b61127d8361127460035490565b6014545f6125ed565b9050805f0361129f57604051639811e0c760e01b815260040160405180910390fd5b6112b26112aa61207c565b838584612614565b610b9e60015f55565b6112c3612470565b6112cc5f61274d565b565b6112d6612470565b600c5481036112f85760405163a741a04560e01b815260040160405180910390fd5b600f54600160881b90046001600160401b031615611329576040516324d9026760e11b815260040160405180910390fd5b61133281612766565b600c5481111561134557611253816127ae565b600c5461135690600f908390612810565b6040518181527fb3aa0ade2442acf51d06713c2d1a5a3ec0373cce969d42b53f4689f97bccf380906020015b60405180910390a150565b611395612448565b61139d612470565b6011546001600160601b031681036113c85760405163a741a04560e01b815260040160405180910390fd5b670de0b6b3a76400008111156113f15760405163f4df6ae560e01b815260040160405180910390fd5b80158015906114105750601154600160601b90046001600160a01b0316155b1561143157604051600162ffa29960e01b0319815260040160405180910390fd5b6114396124ce565b601180546bffffffffffffffffffffffff19166001600160601b03831617905561146161207c565b6001600160a01b03167f8fcddb702fa6c4fe68a01a3dbae30ae032fc6ce52e4aec0ce68bcc33d395cca58260405161124291815260200190565b5f6114a461207c565b9050806001600160a01b03166114c26007546001600160a01b031690565b6001600160a01b0316146114f45760405163118cdaa760e01b81526001600160a01b0382166004820152602401610fa2565b6112538161274d565b6001600160a01b0381165f908152600e6020526040902054600160881b90046001600160401b031661152e81612869565b6040516367c1def960e01b81526001600160a01b0383811660048301527f000000000000000000000000000000000000000000000000000000000000000016906367c1def990602401602060405180830381865afa158015611592573d5f803e3d5ffd5b505050506040513d601f19601f820116820180604052508101906115b69190613d37565b6115de5760405163320b1e2560e21b81526001600160a01b0383166004820152602401610fa2565b6001600160a01b0382165f908152600e602052604090205461160a9083906001600160881b03166128aa565b5050565b600f54600160881b90046001600160401b031661162a81612869565b600f54611253906001600160881b03166127ae565b5f611648612448565b6116506124ce565b6116678361165d60035490565b60145460016129a9565b90506112b261167461207c565b838386612614565b606060058054610b1290613a4f565b611693612470565b600a546001600160a01b03908116908216036116c25760405163a741a04560e01b815260040160405180910390fd5b600d54600160a01b90046001600160401b0316156116f3576040516324d9026760e11b815260040160405180910390fd5b600a546001600160a01b031661170c57611253816129c7565b600c5461171d90600d908390612a35565b6040516001600160a01b038216907f7633313af54753bce8a149927263b1a55eba857ba4ef1d13c6aee25d384d3c4b905f90a250565b600d54600160a01b90046001600160401b031661176f81612869565b600d54611253906001600160a01b03166129c7565b5f8061178e61207c565b9050610bbb8185856121ac565b6117a3612209565b6001600160a01b0381165f818152600b60205260409020600101805467ffffffffffffffff191690556117d461207c565b6001600160a01b03167f8387c3346650400a72032f8bd1aa3f5f44038cf2bf32945e8eeb8a498decea7760405160405180910390a350565b611814612470565b6001600160a01b0382165f9081526009602052604090205481151560ff9091161515036118545760405163a741a04560e01b815260040160405180910390fd5b6001600160a01b0382165f81815260096020908152604091829020805460ff191685151590811790915591519182527f74dc60cbc81a9472d04ad1d20e151d369c41104d655ed3f2f3091166a502cd8d9101610dfe565b5f610b9e82600161204d565b5f6118c0612448565b6118c86124ce565b6118df846118d560035490565b60145460016125ed565b90506118f56118ec61207c565b84848785612a84565b610c5060015f55565b60405163ce96cb7760e01b81523060048201525f90610b9e906001600160a01b0384169063ce96cb7790602401602060405180830381865afa158015611946573d5f803e3d5ffd5b505050506040513d601f19601f8201168201806040525081019061196a9190613d20565b611973846110ab565b808218908211021890565b5f611987612448565b611992848484612bee565b9050610c5060015f55565b6119a5612448565b6119ad612378565b73__$f534e9a5cc3614ed641270b99faa262c3f$__634db0fdf0600b84846119d361207c565b6040518563ffffffff1660e01b81526004016119f29493929190613d52565b5f6040518083038186803b158015611a08575f80fd5b505af4158015611a1a573d5f803e3d5ffd5b5050505061160a60015f55565b5f80611a31612279565b9050610c50815f612097565b5f610b9e825f612097565b611a506120c6565b600f80546001600160c81b0319169055611a6861207c565b6001600160a01b03167f921828337692c347c634c5d2aacbc7b756014674bd236f3cc2058d8e284a951b60405160405180910390a2565b5f611aa982612c23565b50909392505050565b5f805f80611abf85612c23565b925092509250611ad18383835f6125ed565b95945050505050565b611ae2612448565b611aea612470565b6011546001600160a01b03600160601b909104811690821603611b205760405163a741a04560e01b815260040160405180910390fd5b6001600160a01b038116158015611b4157506011546001600160601b031615155b15611b6257604051600162ffa29960e01b0319815260040160405180910390fd5b611b6a6124ce565b601180546001600160601b0316600160601b6001600160a01b038416908102919091179091556040517f0adecf76fa869b35236c53f76ec37546457966d5848d8be34a4508acdd51f7c3905f90a261125360015f55565b611bc9612448565b611bd1612470565b6010546001600160a01b03600160601b909104811690821603611c075760405163a741a04560e01b815260040160405180910390fd5b6001600160a01b038116158015611c2857506010546001600160601b031615155b15611c46576040516333fe7c6560e21b815260040160405180910390fd5b611c4e6124ce565b601080546001600160601b0316600160601b6001600160a01b038416908102919091179091556040517f2e979f80fe4d43055c584cf4a8467c55875ea36728fc37176c05acd784eb7a73905f90a261125360015f55565b611cad612470565b6008546001600160a01b0390811690821603611cdc5760405163a741a04560e01b815260040160405180910390fd5b600880546001600160a01b0319166001600160a01b0383169081179091556040517fbd0a63c12948fbc9194a5839019f99c9d71db924e5c70018265bc778b8f1a506905f90a250565b611d2d612448565b611d356123f2565b5f8073__$52410b9ebe69bc4e2de9cfcceebb4bff07$__633e877866600b600e87877f00000000000000000000000000000000000000000000000000000000000000006040516367c1def960e01b81526001600160a01b038c811660048301527f000000000000000000000000000000000000000000000000000000000000000016906367c1def990602401602060405180830381865afa158015611ddc573d5f803e3d5ffd5b505050506040513d601f19601f82011682018060405250810190611e009190613d37565b600c54611e0b61207c565b6040516001600160e01b031960e08b901b168152600481019890985260248801969096526001600160a01b03948516604488015260648701939093529083166084860152151560a485015260c48401521660e4820152610104016040805180830381865af4158015611e7f573d5f803e3d5ffd5b505050506040513d601f19601f82011682018060405250810190611ea39190613dc6565b915091508115611eb757611eb784826128aa565b505061160a60015f55565b611eca612470565b600780546001600160a01b0383166001600160a01b03199091168117909155611efb6006546001600160a01b031690565b6001600160a01b03167f38d16b8cac22d99fc7c124b9cd0de2d3fa1faef420bfe791d8c362d765e2270060405160405180910390a350565b60128181548110611092575f80fd5b5f805f805f5b601354811015611f9a575f60138281548110611f6657611f66613dfe565b5f918252602090912001546001600160a01b03169050611f85816110ab565b611f8f9084613d0d565b925050600101611f48565b50601454601554611fab9082613e12565b821015611fc357611fbc8282613e12565b9250611fc9565b60155492505b611fd38383613d0d565b93505f611fe08286613e12565b90508015801590611ffb57506010546001600160601b031615155b15612045576010545f906120229083906001600160601b0316670de0b6b3a7640000612c92565b90506120418161203160035490565b61203b848a613e12565b5f6125ed565b9650505b505050909192565b5f805f612058611f42565b5091509150611ad1858361206b60035490565b6120759190613d0d565b83876129a9565b5f610c82612d42565b6120928383836001612e02565b505050565b5f805f6120a2611f42565b5091509150611ad185836120b560035490565b6120bf9190613d0d565b83876125ed565b5f6120cf612ed4565b90506120e36006546001600160a01b031690565b6001600160a01b0316816001600160a01b0316141580156121125750600a546001600160a01b03828116911614155b1561125357604051637cf97e4d60e11b815260040160405180910390fd5b6001600160a01b038381165f908152600260209081526040808320938616835292905220545f198110156121a6578181101561219857604051637dc7a0d960e11b81526001600160a01b03841660048201526024810182905260448101839052606401610fa2565b6121a684848484035f612e02565b50505050565b6001600160a01b0383166121d557604051634b637e8f60e11b81525f6004820152602401610fa2565b6001600160a01b0382166121fe5760405163ec442f0560e01b81525f6004820152602401610fa2565b612092838383612edf565b5f612212612ed4565b600a549091506001600160a01b0380831691161480159061224157506008546001600160a01b03828116911614155b801561225b57506006546001600160a01b03828116911614155b156112535760405163d080fa3160e01b815260040160405180910390fd5b5f805b601254811015612374575f6012828154811061229a5761229a613dfe565b5f9182526020808320909101546001600160a01b0316808352600b90915260408220549092506001600160881b03600160701b90910416908190036122e057505061236c565b5f6122ea836110ab565b905061235c8183038284110260405163402d267d60e01b81523060048201526001600160a01b0386169063402d267d90602401602060405180830381865afa158015612338573d5f803e3d5ffd5b505050506040513d601f19601f820116820180604052508101906119739190613d20565b6123669086613d0d565b94505050505b60010161227c565b5090565b5f612381612ed4565b6001600160a01b0381165f9081526009602052604090205490915060ff161580156123ba57506008546001600160a01b03828116911614155b80156123d457506006546001600160a01b03828116911614155b156112535760405163f7137c0f60e01b815260040160405180910390fd5b5f6123fb612ed4565b6008549091506001600160a01b0380831691161480159061242a57506006546001600160a01b03828116911614155b15611253576040516332a2673b60e21b815260040160405180910390fd5b60025f540361246a57604051633ee5aeb560e01b815260040160405180910390fd5b60025f55565b61247861207c565b6001600160a01b03166124936006546001600160a01b031690565b6001600160a01b0316146112cc576124a961207c565b60405163118cdaa760e01b81526001600160a01b039091166004820152602401610fa2565b5f805f6124d9611f42565b9250925092506124e882613005565b60158190556040518181527f548669ea9bcc24888e6d74a69c9865fa98d795686853b8aa3eb87814261bbb719060200160405180910390a15f83156125a6576011546001600160601b031615612589576011546125589085906001600160601b0316670de0b6b3a7640000612c92565b90506125648185613e12565b935080156125895760115461258990600160601b90046001600160a01b03168261303a565b6010546125a690600160601b90046001600160a01b03168561303a565b60408051848152602081018690529081018290527f875352fb3fadeb8c0be7cbbe8ff761b308fa7033470cd0287f02f3436fd76cb99060600160405180910390a150505050565b5f611ad16125fe620f424086613d0d565b61260b620f424086613d0d565b8791908561306e565b61266a6001600160a01b037f0000000000000000000000000000000000000000000000000000000000000000168530857f00000000000000000000000000000000000000000000000000000000000000006130b0565b612674838261303a565b826001600160a01b0316846001600160a01b03167fdcbc1c05240f31ff3ad067ef1ee35ce4997762752e3a095284754544f4c709d784846040516126c2929190918252602082015260400190565b60405180910390a36040516317275a9960e31b8152600b6004820152601260248201526044810183905273__$2fb31688bc376cc20c94de11c2b2d0a9e4$__9063b93ad4c8906064015f6040518083038186803b158015612721575f80fd5b505af4158015612733573d5f803e3d5ffd5b505050506121a6826014546127489190613d0d565b613005565b600780546001600160a01b0319169055611253816131ec565b6212750081111561278a576040516346fedb5760e01b815260040160405180910390fd5b6201518081101561125357604051631a1593df60e11b815260040160405180910390fd5b600c8190556127bb61207c565b6001600160a01b03167fd28e9b90ee9b37c5936ff84392d71f29ff18117d7e76bcee60615262a90a3f75826040516127f591815260200190565b60405180910390a250600f80546001600160c81b0319169055565b825470ffffffffffffffffffffffffffffffffff19166001600160881b03831617835561283d8142613d0d565b83546001600160401b0391909116600160881b0267ffffffffffffffff60881b19909116179092555050565b805f036128895760405163e5f408a560e01b815260040160405180910390fd5b804210156112535760405163333bd2cb60e11b815260040160405180910390fd5b5f73__$52410b9ebe69bc4e2de9cfcceebb4bff07$__634cb39ed1600b600e601387877f00000000000000000000000000000000000000000000000000000000000000006128f661207c565b6040516001600160e01b031960e08a901b1681526004810197909752602487019590955260448601939093526001600160a01b0391821660648601526001600160881b0316608485015290811660a48401521660c482015260e401602060405180830381865af415801561296c573d5f803e3d5ffd5b505050506040513d601f19601f820116820180604052508101906129909190613d20565b9050801561209257612092816014546127489190613d0d565b5f611ad16129ba620f424085613d0d565b61260b620f424087613d0d565b600a80546001600160a01b0319166001600160a01b0383169081179091556129ed61207c565b6001600160a01b03167fcb11cc8aade2f5a556749d1b2380d108a16fac3431e6a5d5ce12ef9de0bd76e360405160405180910390a350600d80546001600160e01b0319169055565b82546001600160a01b0319166001600160a01b038316178355612a588142613d0d565b83546001600160401b0391909116600160a01b0267ffffffffffffffff60a01b19909116179092555050565b60405163110ac5cb60e21b81526001600160a01b0385811660048301525f917f00000000000000000000000000000000000000000000000000000000000000009091169063442b172c90602401602060405180830381865afa158015612aec573d5f803e3d5ffd5b505050506040513d601f19601f82011682018060405250810190612b109190613e25565b90506001600160a01b03811615801590612b3c5750846001600160a01b0316816001600160a01b031614155b15612b5a576040516399253a5160e01b815260040160405180910390fd5b601454612b6d9084810390851002613005565b6040516272701560e61b8152600b6004820152601360248201526044810184905273__$2fb31688bc376cc20c94de11c2b2d0a9e4$__90631c9c0540906064015f6040518083038186803b158015612bc3575f80fd5b505af4158015612bd5573d5f803e3d5ffd5b50505050612be6868686868661323d565b505050505050565b5f612bf76124ce565b612c0d84612c0460035490565b6014545f6129a9565b9050610c50612c1a61207c565b84848488612a84565b5f805f80612c2f611f42565b509250905080612c3e60035490565b612c489190613d0d565b9250612c73612c6b866001600160a01b03165f9081526001602052604090205490565b84845f6129a9565b9350612c7e846132fd565b612c889085613e12565b9350509193909250565b5f805f612c9f8686613369565b91509150815f03612cc357838181612cb957612cb9613e40565b0492505050610c50565b818411612cda57612cda6003851502601118613385565b5f848688095f868103871696879004966002600389028118808a02820302808a02820302808a02820302808a02820302808a02820302808a02909103029181900381900460010185841190960395909502919093039390930492909217029150509392505050565b5f336001600160a01b037f0000000000000000000000000000000000000000000000000000000000000000168103612dfd57604051630c281d0f60e11b81525f60048201527f00000000000000000000000000000000000000000000000000000000000000006001600160a01b0316906318503a1e906024016040805180830381865afa158015612dd5573d5f803e3d5ffd5b505050506040513d601f19601f82011682018060405250810190612df99190613e54565b5090505b919050565b6001600160a01b038416612e2b5760405163e602df0560e01b81525f6004820152602401610fa2565b6001600160a01b038316612e5457604051634a1406b160e11b81525f6004820152602401610fa2565b6001600160a01b038085165f90815260026020908152604080832093871683529290522082905580156121a657826001600160a01b0316846001600160a01b03167f8c5be1e5ebec7d5bd14f71427d1e84f3dd0314c0f7b2291e5b200ac8c7c3b92584604051612ec691815260200190565b60405180910390a350505050565b5f610c826001613396565b6001600160a01b038316612f09578060035f828254612efe9190613d0d565b90915550612f799050565b6001600160a01b0383165f9081526001602052604090205481811015612f5b5760405163391434e360e21b81526001600160a01b03851660048201526024810182905260448101839052606401610fa2565b6001600160a01b0384165f9081526001602052604090209082900390555b6001600160a01b038216612f9557600380548290039055612fb3565b6001600160a01b0382165f9081526001602052604090208054820190555b816001600160a01b0316836001600160a01b03167fddf252ad1be2c89b69c2b068fc378daa952ba7f163c4a11628f55a4df523b3ef83604051612ff891815260200190565b60405180910390a3505050565b60148190556040518181527f15c027cc4fd826d986cad358803439f7326d3aa4ed969ff90dbee4bc150f68e990602001611382565b6001600160a01b0382166130635760405163ec442f0560e01b81525f6004820152602401610fa2565b61160a5f8383612edf565b5f61309b61307b8361357e565b801561309657505f848061309157613091613e40565b868809115b151590565b6130a6868686612c92565b611ad19190613d0d565b5f806001600160a01b0383161561313e5760405163927da10560e01b81526001600160a01b038781166004830152888116602483015230604483015284169063927da10590606401606060405180830381865afa158015613113573d5f803e3d5ffd5b505050506040513d601f19601f820116820180604052508101906131379190613e96565b5090925090505b83826001600160a01b03161015801561315f5750428165ffffffffffff1610155b156131d757604051631b63c28b60e11b81526001600160a01b0387811660048301528681166024830152858116604483015288811660648301528416906336c78516906084015f604051808303815f87803b1580156131bc575f80fd5b505af11580156131ce573d5f803e3d5ffd5b505050506131e3565b6131e3878787876135aa565b50505050505050565b600680546001600160a01b038381166001600160a01b0319831681179093556040519116919082907f8be0079c531659141344cd1fd0a4f28419497f9722a3daafe3b4186f6b6457e0905f90a35050565b826001600160a01b0316856001600160a01b03161461326157613261838683612130565b61326b8382613611565b6132967f00000000000000000000000000000000000000000000000000000000000000008584613645565b826001600160a01b0316846001600160a01b0316866001600160a01b03167ffbde797d201c681b91056529119e0b02407c7bb96a4a2c75c01fc9667232c8db85856040516132ee929190918252602082015260400190565b60405180910390a45050505050565b5f805b601354811015613362575f6013828154811061331e5761331e613dfe565b5f918252602090912001546001600160a01b0316905061334a613340826118fe565b8086039086110290565b9350835f036133595750613362565b50600101613300565b5090919050565b5f805f1983850993909202808410938190039390930393915050565b634e487b715f52806020526024601cfd5b5f6001600160a01b037f0000000000000000000000000000000000000000000000000000000000000000163303613577575f7f00000000000000000000000000000000000000000000000000000000000000006001600160a01b0316633a1a3a1d6040518163ffffffff1660e01b8152600401602060405180830381865afa158015613424573d5f803e3d5ffd5b505050506040513d601f19601f820116820180604052508101906134489190613d20565b905060ff60b81b8116151580613463575060ff60b01b811615155b80613473575060ff60a81b811615155b156134915760405163ea8e4eb560e01b815260040160405180910390fd5b6001600160a01b0381168315610c505760405163110ac5cb60e21b81526001600160a01b0382811660048301525f917f00000000000000000000000000000000000000000000000000000000000000009091169063442b172c90602401602060405180830381865afa158015613509573d5f803e3d5ffd5b505050506040513d601f19601f8201168201806040525081019061352d9190613e25565b90506001600160a01b038116158015906135595750816001600160a01b0316816001600160a01b031614155b15610afb5760405163ea8e4eb560e01b815260040160405180910390fd5b5033919050565b5f600282600381111561359357613593613ed8565b61359d9190613eec565b60ff166001149050919050565b6040516001600160a01b0384811660248301528381166044830152606482018390526121a69186918216906323b872dd906084015b604051602081830303815290604052915060e01b6020820180516001600160e01b038381831617835250505050613676565b6001600160a01b03821661363a57604051634b637e8f60e11b81525f6004820152602401610fa2565b61160a825f83612edf565b6040516001600160a01b0383811660248301526044820183905261209291859182169063a9059cbb906064016135df565b5f8060205f8451602086015f885af180613695576040513d5f823e3d81fd5b50505f513d915081156136ac5780600114156136b9565b6001600160a01b0384163b155b156121a657604051635274afe760e01b81526001600160a01b0385166004820152602401610fa2565b828054828255905f5260205f20908101928215613735579160200282015b8281111561373557825182546001600160a01b0319166001600160a01b03909116178255602090920191600190910190613700565b50612374929150613792565b828054828255905f5260205f20908101928215613735579160200282015b828111156137355781546001600160a01b0319166001600160a01b0384351617825560209092019160019091019061375f565b5b80821115612374575f8155600101613793565b602081525f82518060208401528060208501604085015e5f604082850101526040601f19601f83011684010191505092915050565b5f602082840312156137eb575f80fd5b5035919050565b6001600160a01b0381168114611253575f80fd5b5f8060408385031215613817575f80fd5b8235613822816137f2565b946020939093013593505050565b5f60208284031215613840575f80fd5b8135610c50816137f2565b5f805f6060848603121561385d575f80fd5b8335613868816137f2565b92506020840135613878816137f2565b929592945050506040919091013590565b5f8083601f840112613899575f80fd5b5081356001600160401b038111156138af575f80fd5b6020830191508360208260051b85010111156138c9575f80fd5b9250929050565b5f80602083850312156138e1575f80fd5b82356001600160401b038111156138f6575f80fd5b61390285828601613889565b90969095509350505050565b5f806040838503121561391f575f80fd5b823591506020830135613931816137f2565b809150509250929050565b8015158114611253575f80fd5b5f806040838503121561395a575f80fd5b8235613965816137f2565b915060208301356139318161393c565b5f805f60608486031215613987575f80fd5b833592506020840135613999816137f2565b915060408401356139a9816137f2565b809150509250925092565b5f80602083850312156139c5575f80fd5b82356001600160401b038111156139da575f80fd5b8301601f810185136139ea575f80fd5b80356001600160401b038111156139ff575f80fd5b8560208260061b8401011115613a13575f80fd5b6020919091019590945092505050565b5f8060408385031215613a34575f80fd5b8235613a3f816137f2565b91506020830135613931816137f2565b600181811c90821680613a6357607f821691505b602082108103613a8157634e487b7160e01b5f52602260045260245ffd5b50919050565b634e487b7160e01b5f52601160045260245ffd5b60ff8181168382160190811115610b9e57610b9e613a87565b5f608082018783528660208401526080604084015280865480835260a085019150875f5260205f2092505f5b81811015613b075783546001600160a01b0316835260019384019360209093019201613ae0565b505083810360608501528481526001600160fb1b03851115613b27575f80fd5b8460051b91508186602083013701602001979650505050505050565b634e487b7160e01b5f52604160045260245ffd5b8051612dfd816137f2565b5f60208284031215613b72575f80fd5b81516001600160401b03811115613b87575f80fd5b8201601f81018413613b97575f80fd5b80516001600160401b03811115613bb057613bb0613b43565b8060051b604051601f19603f83011681018181106001600160401b0382111715613bdc57613bdc613b43565b604052918252602081840181019290810187841115613bf9575f80fd5b6020850194505b83851015613c1f57613c1185613b57565b815260209485019401613c00565b509695505050505050565b602080825282548282018190525f848152918220906040840190835b81811015613c6d5783546001600160a01b0316835260019384019360209093019201613c46565b509095945050505050565b83815260406020820181905281018290525f8360608301825b85811015613c1f578235613ca4816137f2565b6001600160a01b0316825260209283019290910190600101613c91565b602080825281018290525f8360408301825b85811015613d03578235613ce6816137f2565b6001600160a01b0316825260209283019290910190600101613cd3565b5095945050505050565b80820180821115610b9e57610b9e613a87565b5f60208284031215613d30575f80fd5b5051919050565b5f60208284031215613d47575f80fd5b8151610c508161393c565b84815260606020820181905281018390525f8460808301825b86811015613da5578235613d7e816137f2565b6001600160a01b031682526020838101359083015260409283019290910190600101613d6b565b506001600160a01b0394909416604093909301929092525090949350505050565b5f8060408385031215613dd7575f80fd5b8251613de28161393c565b60208401519092506001600160881b0381168114613931575f80fd5b634e487b7160e01b5f52603260045260245ffd5b81810381811115610b9e57610b9e613a87565b5f60208284031215613e35575f80fd5b8151610c50816137f2565b634e487b7160e01b5f52601260045260245ffd5b5f8060408385031215613e65575f80fd5b8251613e70816137f2565b60208401519092506139318161393c565b805165ffffffffffff81168114612dfd575f80fd5b5f805f60608486031215613ea8575f80fd5b8351613eb3816137f2565b9250613ec160208501613e81565b9150613ecf60408501613e81565b90509250925092565b634e487b7160e01b5f52602160045260245ffd5b5f60ff831680613f0a57634e487b7160e01b5f52601260045260245ffd5b8060ff8416069150509291505056fea264697066735822122016569a1675abb7916a7bb4102ca4df6cdf7f95f862ec7f2d083d841d6f5f869064736f6c634300081a0033","linkReferences":{"src_chain/arbitrum/src/libraries/CuratorLib.sol":{"CuratorLib":[{"start":9342,"length":20},{"start":12274,"length":20}]},"src_chain/arbitrum/src/libraries/ReallocateLib.sol":{"ReallocateLib":[{"start":5241,"length":20},{"start":5478,"length":20},{"start":8436,"length":20}]},"src_chain/arbitrum/src/libraries/StrategyLib.sol":{"StrategyLib":[{"start":11827,"length":20},{"start":13013,"length":20}]}}},"methodIdentifiers":{"EVC()":"a70354a1","acceptCap(address)":"81bc23a6","acceptGuardian()":"a5f31d61","acceptOwnership()":"79ba5097","acceptTimelock()":"8a2c7b39","allowance(address,address)":"dd62ed3e","approve(address,uint256)":"095ea7b3","asset()":"38d52e0f","balanceOf(address)":"70a08231","config(address)":"0e68ec95","convertToAssets(uint256)":"07a2d13a","convertToShares(uint256)":"c6e6f592","creator()":"02d05d3f","curator()":"e66f53b7","decimals()":"313ce567","deposit(uint256,address)":"6e553f65","expectedSupplyAssets(address)":"6623b575","fee()":"ddca3f43","feeRecipient()":"46904840","guardian()":"452a9320","isAllocator(address)":"4dedf20e","lastTotalAssets()":"568efc07","lostAssets()":"21cb4b14","maxDeposit(address)":"402d267d","maxMint(address)":"c63d75b6","maxRedeem(address)":"d905777e","maxWithdraw(address)":"ce96cb77","maxWithdrawFromStrategy(address)":"b65dbf56","mint(uint256,address)":"94bf804d","name()":"06fdde03","owner()":"8da5cb5b","pendingCap(address)":"987ee783","pendingGuardian()":"762c31ba","pendingOwner()":"e30c3978","pendingTimelock()":"7cc4d9a1","permit2Address()":"c5224983","previewDeposit(uint256)":"ef8b30f7","previewMint(uint256)":"b3d7f6b9","previewRedeem(uint256)":"4cdad506","previewWithdraw(uint256)":"0a28a477","protocolFee()":"b0e21e8a","protocolFeeRecipient()":"64df049e","reallocate((address,uint256)[])":"be9c5800","redeem(uint256,address,address)":"ba087652","renounceOwnership()":"715018a6","revokePendingCap(address)":"3a72efdf","revokePendingGuardian()":"1ecca77c","revokePendingMarketRemoval(address)":"ac88990c","revokePendingTimelock()":"c9649aa9","setCurator(address)":"e90956cf","setFee(uint256)":"69fe0e2d","setFeeRecipient(address)":"e74b981b","setIsAllocator(address,bool)":"b192a84a","setProtocolFee(uint256)":"787dce3d","setProtocolFeeRecipient(address)":"e521cb92","setSupplyQueue(address[])":"4e083eb3","submitCap(address,uint256)":"ee7a4b33","submitGuardian(address)":"9d6b4a45","submitMarketRemoval(address)":"5897a06d","submitTimelock(uint256)":"7224a512","supplyQueue(uint256)":"f7d18521","supplyQueueLength()":"a17b3130","symbol()":"95d89b41","timelock()":"d33219b4","totalAssets()":"01e1d114","totalSupply()":"18160ddd","transfer(address,uint256)":"a9059cbb","transferFrom(address,address,uint256)":"23b872dd","transferOwnership(address)":"f2fde38b","updateWithdrawQueue(uint256[])":"41b67833","withdraw(uint256,address,address)":"b460af94","withdrawQueue(uint256)":"62518ddf","withdrawQueueLength()":"33f91ebb"},"id":47}