{"abi":[{"type":"constructor","inputs":[{"name":"ampleEarn","type":"address","internalType":"contract IAmpleEarn"}],"stateMutability":"nonpayable"},{"type":"function","name":"AMPLE_EARN","inputs":[],"outputs":[{"name":"","type":"address","internalType":"contract IAmpleEarn"}],"stateMutability":"view"},{"type":"function","name":"safeTransferPayout","inputs":[{"name":"to","type":"address","internalType":"address"},{"name":"payout","type":"uint256","internalType":"uint256"}],"outputs":[],"stateMutability":"nonpayable"},{"type":"function","name":"sponsorPayout","inputs":[{"name":"amount","type":"uint256","internalType":"uint256"},{"name":"isUnderlying","type":"bool","internalType":"bool"}],"outputs":[{"name":"shares","type":"uint256","internalType":"uint256"}],"stateMutability":"nonpayable"},{"type":"event","name":"SafeTransferPayout","inputs":[{"name":"to","type":"address","indexed":true,"internalType":"address"},{"name":"payoutAmount","type":"uint256","indexed":false,"internalType":"uint256"}],"anonymous":false},{"type":"event","name":"SponsorPayout","inputs":[{"name":"sponsor","type":"address","indexed":true,"internalType":"address"},{"name":"amount","type":"uint256","indexed":false,"internalType":"uint256"},{"name":"shares","type":"uint256","indexed":false,"internalType":"uint256"}],"anonymous":false},{"type":"error","name":"NotAmpleEarn","inputs":[]},{"type":"error","name":"SafeERC20FailedOperation","inputs":[{"name":"token","type":"address","internalType":"address"}]},{"type":"error","name":"ZeroAmount","inputs":[]}],"bytecode":{"object":"0x60a0604052348015600e575f80fd5b506040516106f53803806106f5833981016040819052602b91603b565b6001600160a01b03166080526066565b5f60208284031215604a575f80fd5b81516001600160a01b0381168114605f575f80fd5b9392505050565b60805161064f6100a65f395f818160830152818160e70152818161018b015281816101cc01528181610255015281816102c90152610314015261064f5ff3fe608060405234801561000f575f80fd5b506004361061003f575f3560e01c8063132db1e5146100435780639ef8cf1d14610069578063e7b219a31461007e575b5f80fd5b61005661005136600461056d565b6100bd565b6040519081526020015b60405180910390f35b61007c6100773660046105b6565b6102be565b005b6100a57f000000000000000000000000000000000000000000000000000000000000000081565b6040516001600160a01b039091168152602001610060565b5f825f036100de57604051631f2a200560e01b815260040160405180910390fd5b8115610246575f7f00000000000000000000000000000000000000000000000000000000000000006001600160a01b03166338d52e0f6040518163ffffffff1660e01b8152600401602060405180830381865afa158015610141573d5f803e3d5ffd5b505050506040513d601f19601f8201168201806040525081019061016591906105e0565b905061017c6001600160a01b038216333087610382565b6101b06001600160a01b0382167f0000000000000000000000000000000000000000000000000000000000000000866103ef565b604051636e553f6560e01b8152600481018590523060248201527f00000000000000000000000000000000000000000000000000000000000000006001600160a01b031690636e553f65906044016020604051808303815f875af115801561021a573d5f803e3d5ffd5b505050506040513d601f19601f8201168201806040525081019061023e9190610602565b91505061027d565b508161027d6001600160a01b037f000000000000000000000000000000000000000000000000000000000000000016333084610382565b604080518481526020810183905233917f1b6f4a41c8f2f8a60a302cdb13ba1160df3bd66f63df8d843691301c0c804e4e910160405180910390a292915050565b336001600160a01b037f0000000000000000000000000000000000000000000000000000000000000000161461030757604051632df1cb8360e11b815260040160405180910390fd5b61033b6001600160a01b037f000000000000000000000000000000000000000000000000000000000000000016838361047e565b816001600160a01b03167f18c19203fed2316157364d2734d06d8167d7bf17faa313d512e6701e0dae88378260405161037691815260200190565b60405180910390a25050565b6040516001600160a01b0384811660248301528381166044830152606482018390526103e99186918216906323b872dd906084015b604051602081830303815290604052915060e01b6020820180516001600160e01b0383818316178352505050506104b4565b50505050565b604080516001600160a01b038416602482015260448082018490528251808303909101815260649091019091526020810180516001600160e01b031663095ea7b360e01b1790526104408482610524565b6103e9576040516001600160a01b0384811660248301525f604483015261047491869182169063095ea7b3906064016103b7565b6103e984826104b4565b6040516001600160a01b038381166024830152604482018390526104af91859182169063a9059cbb906064016103b7565b505050565b5f8060205f8451602086015f885af1806104d3576040513d5f823e3d81fd5b50505f513d915081156104ea5780600114156104f7565b6001600160a01b0384163b155b156103e957604051635274afe760e01b81526001600160a01b038516600482015260240160405180910390fd5b5f805f8060205f8651602088015f8a5af192503d91505f519050828015610563575081156105555780600114610563565b5f866001600160a01b03163b115b9695505050505050565b5f806040838503121561057e575f80fd5b8235915060208301358015158114610594575f80fd5b809150509250929050565b6001600160a01b03811681146105b3575f80fd5b50565b5f80604083850312156105c7575f80fd5b82356105d28161059f565b946020939093013593505050565b5f602082840312156105f0575f80fd5b81516105fb8161059f565b9392505050565b5f60208284031215610612575f80fd5b505191905056fea2646970667358221220f8defb3600832719cad2b6697295fc9c2bad6a111d1e17bf5a7f843fe6141e5f64736f6c634300081a0033","linkReferences":{}},"methodIdentifiers":{"AMPLE_EARN()":"e7b219a3","safeTransferPayout(address,uint256)":"9ef8cf1d","sponsorPayout(uint256,bool)":"132db1e5"},"id":51}