{"abi":[{"type":"constructor","inputs":[{"name":"_owner","type":"address","internalType":"address"}],"stateMutability":"nonpayable"},{"type":"function","name":"acceptOwnership","inputs":[],"outputs":[],"stateMutability":"nonpayable"},{"type":"function","name":"isVerified","inputs":[{"name":"vault","type":"address","internalType":"address"}],"outputs":[{"name":"","type":"bool","internalType":"bool"}],"stateMutability":"view"},{"type":"function","name":"name","inputs":[],"outputs":[{"name":"","type":"string","internalType":"string"}],"stateMutability":"pure"},{"type":"function","name":"owner","inputs":[],"outputs":[{"name":"","type":"address","internalType":"address"}],"stateMutability":"view"},{"type":"function","name":"pendingOwner","inputs":[],"outputs":[{"name":"","type":"address","internalType":"address"}],"stateMutability":"view"},{"type":"function","name":"renounceOwnership","inputs":[],"outputs":[],"stateMutability":"nonpayable"},{"type":"function","name":"transferOwnership","inputs":[{"name":"newOwner","type":"address","internalType":"address"}],"outputs":[],"stateMutability":"nonpayable"},{"type":"function","name":"unverify","inputs":[{"name":"vault","type":"address","internalType":"address"}],"outputs":[],"stateMutability":"nonpayable"},{"type":"function","name":"verifiedArray","inputs":[],"outputs":[{"name":"","type":"address[]","internalType":"address[]"}],"stateMutability":"view"},{"type":"function","name":"verifiedLength","inputs":[],"outputs":[{"name":"","type":"uint256","internalType":"uint256"}],"stateMutability":"view"},{"type":"function","name":"verify","inputs":[{"name":"vault","type":"address","internalType":"address"}],"outputs":[],"stateMutability":"nonpayable"},{"type":"event","name":"OwnershipTransferStarted","inputs":[{"name":"previousOwner","type":"address","indexed":true,"internalType":"address"},{"name":"newOwner","type":"address","indexed":true,"internalType":"address"}],"anonymous":false},{"type":"event","name":"OwnershipTransferred","inputs":[{"name":"previousOwner","type":"address","indexed":true,"internalType":"address"},{"name":"newOwner","type":"address","indexed":true,"internalType":"address"}],"anonymous":false},{"type":"event","name":"Unverified","inputs":[{"name":"vault","type":"address","indexed":true,"internalType":"address"}],"anonymous":false},{"type":"event","name":"Verified","inputs":[{"name":"vault","type":"address","indexed":true,"internalType":"address"}],"anonymous":false},{"type":"error","name":"AlreadyVerified","inputs":[{"name":"vault","type":"address","internalType":"address"}]},{"type":"error","name":"InvalidVault","inputs":[{"name":"vault","type":"address","internalType":"address"}]},{"type":"error","name":"NotVerified","inputs":[{"name":"vault","type":"address","internalType":"address"}]},{"type":"error","name":"OwnableInvalidOwner","inputs":[{"name":"owner","type":"address","internalType":"address"}]},{"type":"error","name":"OwnableUnauthorizedAccount","inputs":[{"name":"account","type":"address","internalType":"address"}]}],"bytecode":{"object":"0x608060405234801561000f575f80fd5b506040516108ab3803806108ab83398101604081905261002e916100d7565b806001600160a01b03811661005c57604051631e4fbdf760e01b81525f600482015260240160405180910390fd5b6100658161006c565b5050610104565b600180546001600160a01b031916905561008581610088565b50565b5f80546001600160a01b038381166001600160a01b0319831681178455604051919092169283917f8be0079c531659141344cd1fd0a4f28419497f9722a3daafe3b4186f6b6457e09190a35050565b5f602082840312156100e7575f80fd5b81516001600160a01b03811681146100fd575f80fd5b9392505050565b61079a806101115f395ff3fe608060405234801561000f575f80fd5b50600436106100a6575f3560e01c80638d5e21d31161006e5780638d5e21d31461012d5780638da5cb5b14610142578063b9209e3314610166578063e30c397814610189578063e3f8adcd1461019a578063f2fde38b146101ad575f80fd5b806306fdde03146100aa578063138721d9146100f257806363a9c3d714610108578063715018a61461011d57806379ba509714610125575b5f80fd5b604080518082018252601e81527f416d706c65204561726e20466163746f72792050657273706563746976650000602082015290516100e99190610677565b60405180910390f35b6100fa6101c0565b6040519081526020016100e9565b61011b6101163660046106ac565b6101d0565b005b61011b6102a0565b61011b6102b3565b6101356102f7565b6040516100e991906106d2565b5f546001600160a01b03165b6040516001600160a01b0390911681526020016100e9565b6101796101743660046106ac565b610303565b60405190151581526020016100e9565b6001546001600160a01b031661014e565b61011b6101a83660046106ac565b610315565b61011b6101bb3660046106ac565b610386565b5f6101cb60026103f6565b905090565b6101d86103ff565b6001600160a01b03811615806101f657506001600160a01b0381163b155b8061020957506001600160a01b03811630145b15610237576040516357b980d760e11b81526001600160a01b03821660048201526024015b60405180910390fd5b61024260028261042b565b61026a576040516341b77a2960e11b81526001600160a01b038216600482015260240161022e565b6040516001600160a01b038216907f6a6455914f452787eb3985452aceedc1000fb545e394eb3b370e3d08958e0a5b905f90a250565b6102a86103ff565b6102b15f610446565b565b60015433906001600160a01b031681146102eb5760405163118cdaa760e01b81526001600160a01b038216600482015260240161022e565b6102f481610446565b50565b60606101cb600261045f565b5f61030f60028361046b565b92915050565b61031d6103ff565b61032860028261048c565b6103505760405163b12c8f9160e01b81526001600160a01b038216600482015260240161022e565b6040516001600160a01b038216907fbf40ed975ac04192dc3c221b21155d52ba4322b78f63a7bd22c828bf2d3f6c8c905f90a250565b61038e6103ff565b600180546001600160a01b0383166001600160a01b031990911681179091556103be5f546001600160a01b031690565b6001600160a01b03167f38d16b8cac22d99fc7c124b9cd0de2d3fa1faef420bfe791d8c362d765e2270060405160405180910390a350565b5f61030f825490565b5f546001600160a01b031633146102b15760405163118cdaa760e01b815233600482015260240161022e565b5f61043f836001600160a01b0384166104a0565b9392505050565b600180546001600160a01b03191690556102f4816104ec565b60605f61043f8361053b565b6001600160a01b0381165f908152600183016020526040812054151561043f565b5f61043f836001600160a01b038416610594565b5f8181526001830160205260408120546104e557508154600181810184555f84815260208082209093018490558454848252828601909352604090209190915561030f565b505f61030f565b5f80546001600160a01b038381166001600160a01b0319831681178455604051919092169283917f8be0079c531659141344cd1fd0a4f28419497f9722a3daafe3b4186f6b6457e09190a35050565b6060815f0180548060200260200160405190810160405280929190818152602001828054801561058857602002820191905f5260205f20905b815481526020019060010190808311610574575b50505050509050919050565b5f818152600183016020526040812054801561066e575f6105b660018361071d565b85549091505f906105c99060019061071d565b9050808214610628575f865f0182815481106105e7576105e761073c565b905f5260205f200154905080875f0184815481106106075761060761073c565b5f918252602080832090910192909255918252600188019052604090208390555b855486908061063957610639610750565b600190038181905f5260205f20015f90559055856001015f8681526020019081526020015f205f90556001935050505061030f565b5f91505061030f565b602081525f82518060208401528060208501604085015e5f604082850101526040601f19601f83011684010191505092915050565b5f602082840312156106bc575f80fd5b81356001600160a01b038116811461043f575f80fd5b602080825282518282018190525f918401906040840190835b818110156107125783516001600160a01b03168352602093840193909201916001016106eb565b509095945050505050565b8181038181111561030f57634e487b7160e01b5f52601160045260245ffd5b634e487b7160e01b5f52603260045260245ffd5b634e487b7160e01b5f52603160045260245ffdfea264697066735822122007208b046d940903b3152beef2f5d8fcf47e749a4eb34b6197f49fc2ebe8e99064736f6c634300081a0033","linkReferences":{}},"methodIdentifiers":{"acceptOwnership()":"79ba5097","isVerified(address)":"b9209e33","name()":"06fdde03","owner()":"8da5cb5b","pendingOwner()":"e30c3978","renounceOwnership()":"715018a6","transferOwnership(address)":"f2fde38b","unverify(address)":"e3f8adcd","verifiedArray()":"8d5e21d3","verifiedLength()":"138721d9","verify(address)":"63a9c3d7"},"id":52}