{"abi":[{"type":"constructor","inputs":[{"name":"_owner","type":"address","internalType":"address"},{"name":"_evc","type":"address","internalType":"address"},{"name":"_permit2","type":"address","internalType":"address"},{"name":"_perspective","type":"address","internalType":"address"}],"stateMutability":"nonpayable"},{"type":"function","name":"EVC","inputs":[],"outputs":[{"name":"","type":"address","internalType":"address"}],"stateMutability":"view"},{"type":"function","name":"acceptOwnership","inputs":[],"outputs":[],"stateMutability":"nonpayable"},{"type":"function","name":"createAmpleEarn","inputs":[{"name":"initialOwner","type":"address","internalType":"address"},{"name":"initialTimelock","type":"uint256","internalType":"uint256"},{"name":"asset","type":"address","internalType":"address"},{"name":"name","type":"string","internalType":"string"},{"name":"symbol","type":"string","internalType":"string"},{"name":"protocolFee","type":"uint96","internalType":"uint96"},{"name":"protocolFeeRecipient","type":"address","internalType":"address"},{"name":"salt","type":"bytes32","internalType":"bytes32"}],"outputs":[{"name":"ampleEarn","type":"address","internalType":"contract IAmpleEarn"}],"stateMutability":"nonpayable"},{"type":"function","name":"getVaultListLength","inputs":[],"outputs":[{"name":"","type":"uint256","internalType":"uint256"}],"stateMutability":"view"},{"type":"function","name":"getVaultListSlice","inputs":[{"name":"start","type":"uint256","internalType":"uint256"},{"name":"end","type":"uint256","internalType":"uint256"}],"outputs":[{"name":"list","type":"address[]","internalType":"address[]"}],"stateMutability":"view"},{"type":"function","name":"isStrategyAllowed","inputs":[{"name":"id","type":"address","internalType":"address"}],"outputs":[{"name":"","type":"bool","internalType":"bool"}],"stateMutability":"view"},{"type":"function","name":"isVault","inputs":[{"name":"","type":"address","internalType":"address"}],"outputs":[{"name":"","type":"bool","internalType":"bool"}],"stateMutability":"view"},{"type":"function","name":"owner","inputs":[],"outputs":[{"name":"","type":"address","internalType":"address"}],"stateMutability":"view"},{"type":"function","name":"pendingOwner","inputs":[],"outputs":[{"name":"","type":"address","internalType":"address"}],"stateMutability":"view"},{"type":"function","name":"permit2Address","inputs":[],"outputs":[{"name":"","type":"address","internalType":"address"}],"stateMutability":"view"},{"type":"function","name":"renounceOwnership","inputs":[],"outputs":[],"stateMutability":"nonpayable"},{"type":"function","name":"setPerspective","inputs":[{"name":"_perspective","type":"address","internalType":"address"}],"outputs":[],"stateMutability":"nonpayable"},{"type":"function","name":"supportedPerspective","inputs":[],"outputs":[{"name":"","type":"address","internalType":"address"}],"stateMutability":"view"},{"type":"function","name":"transferOwnership","inputs":[{"name":"newOwner","type":"address","internalType":"address"}],"outputs":[],"stateMutability":"nonpayable"},{"type":"function","name":"vaultList","inputs":[{"name":"","type":"uint256","internalType":"uint256"}],"outputs":[{"name":"","type":"address","internalType":"address"}],"stateMutability":"view"},{"type":"event","name":"CreateAmpleEarn","inputs":[{"name":"ampleEarn","type":"address","indexed":true,"internalType":"address"},{"name":"caller","type":"address","indexed":true,"internalType":"address"},{"name":"initialOwner","type":"address","indexed":false,"internalType":"address"},{"name":"initialTimelock","type":"uint256","indexed":false,"internalType":"uint256"},{"name":"asset","type":"address","indexed":true,"internalType":"address"},{"name":"name","type":"string","indexed":false,"internalType":"string"},{"name":"symbol","type":"string","indexed":false,"internalType":"string"},{"name":"protocolFee","type":"uint96","indexed":false,"internalType":"uint96"},{"name":"protocolFeeRecipient","type":"address","indexed":false,"internalType":"address"},{"name":"salt","type":"bytes32","indexed":false,"internalType":"bytes32"}],"anonymous":false},{"type":"event","name":"OwnershipTransferStarted","inputs":[{"name":"previousOwner","type":"address","indexed":true,"internalType":"address"},{"name":"newOwner","type":"address","indexed":true,"internalType":"address"}],"anonymous":false},{"type":"event","name":"OwnershipTransferred","inputs":[{"name":"previousOwner","type":"address","indexed":true,"internalType":"address"},{"name":"newOwner","type":"address","indexed":true,"internalType":"address"}],"anonymous":false},{"type":"event","name":"SetPerspective","inputs":[{"name":"","type":"address","indexed":false,"internalType":"address"}],"anonymous":false},{"type":"error","name":"BadQuery","inputs":[]},{"type":"error","name":"ControllerDisabled","inputs":[]},{"type":"error","name":"EVC_InvalidAddress","inputs":[]},{"type":"error","name":"NotAuthorized","inputs":[]},{"type":"error","name":"OwnableInvalidOwner","inputs":[{"name":"owner","type":"address","internalType":"address"}]},{"type":"error","name":"OwnableUnauthorizedAccount","inputs":[{"name":"account","type":"address","internalType":"address"}]},{"type":"error","name":"ZeroAddress","inputs":[]}],"bytecode":{"object":"0x60c060405234801561000f575f80fd5b50604051616d8c380380616d8c83398101604081905261002e9161016c565b82846001600160a01b03811661005d57604051631e4fbdf760e01b81525f600482015260240160405180910390fd5b610066816100e6565b506001600160a01b03811661008e57604051638133abd160e01b815260040160405180910390fd5b6001600160a01b0390811660805281166100bb5760405163d92e233d60e01b815260040160405180910390fd5b6001600160a01b0391821660a052600480546001600160a01b03191691909216179055506101bd9050565b600180546001600160a01b03191690556100ff81610102565b50565b5f80546001600160a01b038381166001600160a01b0319831681178455604051919092169283917f8be0079c531659141344cd1fd0a4f28419497f9722a3daafe3b4186f6b6457e09190a35050565b80516001600160a01b0381168114610167575f80fd5b919050565b5f805f806080858703121561017f575f80fd5b61018885610151565b935061019660208601610151565b92506101a460408601610151565b91506101b260608601610151565b905092959194509250565b60805160a051616b7d61020f5f395f81816101eb015261035301525f81816101b1015281816103320152818161079f015281816107c8015281816108c00152818161099101526109cc0152616b7d5ff3fe608060405234801561000f575f80fd5b50600436106100f0575f3560e01c80638da5cb5b11610093578063c80ec97511610063578063c80ec9751461020d578063e30c397814610220578063ee766bea14610231578063f2fde38b14610251575f80fd5b80638da5cb5b1461019f578063a70354a1146101af578063a7e6491b146101d5578063c5224983146101e6575f80fd5b80636aacc625116100ce5780636aacc62514610169578063715018a61461017c57806371c6d03c1461018657806379ba509714610197575f80fd5b80632d8efbc5146100f4578063652b9b411461012457806367c1def914610156575b5f80fd5b610107610102366004610aa1565b610264565b6040516001600160a01b0390911681526020015b60405180910390f35b610146610132366004610ad7565b60026020525f908152604090205460ff1681565b604051901515815260200161011b565b610146610164366004610ad7565b61028c565b610107610177366004610b91565b610325565b610184610488565b005b60035460405190815260200161011b565b61018461049b565b5f546001600160a01b0316610107565b7f0000000000000000000000000000000000000000000000000000000000000000610107565b6004546001600160a01b0316610107565b6101077f000000000000000000000000000000000000000000000000000000000000000081565b61018461021b366004610ad7565b610505565b6001546001600160a01b0316610107565b61024461023f366004610c5c565b610593565b60405161011b9190610c7c565b61018461025f366004610ad7565b6106a0565b60038181548110610273575f80fd5b5f918252602090912001546001600160a01b0316905081565b6004805460405163b9209e3360e01b81526001600160a01b03848116938201939093525f929091169063b9209e3390602401602060405180830381865afa1580156102d9573d5f803e3d5ffd5b505050506040513d601f19601f820116820180604052508101906102fd9190610cd6565b8061031f57506001600160a01b0382165f9081526002602052604090205460ff165b92915050565b5f61032e610710565b81897f00000000000000000000000000000000000000000000000000000000000000007f00000000000000000000000000000000000000000000000000000000000000008b8b8b8b8b8b60405161038490610a94565b61039699989796959493929190610d1d565b8190604051809103905ff59050801580156103b3573d5f803e3d5ffd5b506001600160a01b038082165f818152600260205260408120805460ff191660019081179091556003805491820181559091527fc2575a0e9e593c00f959f8c92f12db2869c3395a3b0502d05e2516446f71f85b0180546001600160a01b0319169091179055909150871661042661076d565b6001600160a01b0316826001600160a01b03167ff1f4fbf279f239110cb416c8b59ba581b2191e358ef1d6743fdaf72c0dab890f8c8c8b8b8b8b8b6040516104749796959493929190610da3565b60405180910390a498975050505050505050565b610490610710565b6104995f61077b565b565b5f6104a461076d565b9050806001600160a01b03166104c26001546001600160a01b031690565b6001600160a01b0316146104f95760405163118cdaa760e01b81526001600160a01b03821660048201526024015b60405180910390fd5b6105028161077b565b50565b61050f6001610794565b50610518610710565b6001600160a01b03811661053f5760405163d92e233d60e01b815260040160405180910390fd5b600480546001600160a01b0319166001600160a01b0383169081179091556040519081527fd89dfe4d6279a28791eaa0e6ce55810b1e6289c809bd7d1797b734db310767079060200160405180910390a150565b60605f1982036105a35760035491505b828210806105b2575060035482115b156105cf5760405162fc654d60e61b815260040160405180910390fd5b6105d98383610e21565b67ffffffffffffffff8111156105f1576105f1610af2565b60405190808252806020026020018201604052801561061a578160200160208202803683370190505b5090505f5b6106298484610e21565b81101561069957600361063c8286610e34565b8154811061064c5761064c610e47565b905f5260205f20015f9054906101000a90046001600160a01b031682828151811061067957610679610e47565b6001600160a01b039092166020928302919091019091015260010161061f565b5092915050565b6106a8610710565b600180546001600160a01b0383166001600160a01b031990911681179091556106d85f546001600160a01b031690565b6001600160a01b03167f38d16b8cac22d99fc7c124b9cd0de2d3fa1faef420bfe791d8c362d765e2270060405160405180910390a350565b61071861076d565b6001600160a01b03166107325f546001600160a01b031690565b6001600160a01b0316146104995761074861076d565b60405163118cdaa760e01b81526001600160a01b0390911660048201526024016104f0565b5f610776610985565b905090565b600180546001600160a01b031916905561050281610a45565b5f6001600160a01b037f000000000000000000000000000000000000000000000000000000000000000016330361097e575f7f00000000000000000000000000000000000000000000000000000000000000006001600160a01b0316633a1a3a1d6040518163ffffffff1660e01b8152600401602060405180830381865afa158015610822573d5f803e3d5ffd5b505050506040513d601f19601f820116820180604052508101906108469190610e5b565b905060ff60b81b8116151580610861575060ff60b01b811615155b80610871575060ff60a81b811615155b1561088f5760405163ea8e4eb560e01b815260040160405180910390fd5b6001600160a01b03811683156109775760405163110ac5cb60e21b81526001600160a01b0382811660048301525f917f00000000000000000000000000000000000000000000000000000000000000009091169063442b172c90602401602060405180830381865afa158015610907573d5f803e3d5ffd5b505050506040513d601f19601f8201168201806040525081019061092b9190610e72565b90506001600160a01b038116158015906109575750816001600160a01b0316816001600160a01b031614155b156109755760405163ea8e4eb560e01b815260040160405180910390fd5b505b9392505050565b5033919050565b5f336001600160a01b037f0000000000000000000000000000000000000000000000000000000000000000168103610a4057604051630c281d0f60e11b81525f60048201527f00000000000000000000000000000000000000000000000000000000000000006001600160a01b0316906318503a1e906024016040805180830381865afa158015610a18573d5f803e3d5ffd5b505050506040513d601f19601f82011682018060405250810190610a3c9190610e8d565b5090505b919050565b5f80546001600160a01b038381166001600160a01b0319831681178455604051919092169283917f8be0079c531659141344cd1fd0a4f28419497f9722a3daafe3b4186f6b6457e09190a35050565b615c8780610ec183390190565b5f60208284031215610ab1575f80fd5b5035919050565b6001600160a01b0381168114610502575f80fd5b8035610a4081610ab8565b5f60208284031215610ae7575f80fd5b813561097781610ab8565b634e487b7160e01b5f52604160045260245ffd5b5f82601f830112610b15575f80fd5b813567ffffffffffffffff811115610b2f57610b2f610af2565b604051601f8201601f19908116603f0116810167ffffffffffffffff81118282101715610b5e57610b5e610af2565b604052818152838201602001851015610b75575f80fd5b816020850160208301375f918101602001919091529392505050565b5f805f805f805f80610100898b031215610ba9575f80fd5b8835610bb481610ab8565b9750602089013596506040890135610bcb81610ab8565b9550606089013567ffffffffffffffff811115610be6575f80fd5b610bf28b828c01610b06565b955050608089013567ffffffffffffffff811115610c0e575f80fd5b610c1a8b828c01610b06565b94505060a08901356001600160601b0381168114610c36575f80fd5b9250610c4460c08a01610acc565b979a969950949793969295919450919260e001359150565b5f8060408385031215610c6d575f80fd5b50508035926020909101359150565b602080825282518282018190525f918401906040840190835b81811015610cbc5783516001600160a01b0316835260209384019390920191600101610c95565b509095945050505050565b80518015158114610a40575f80fd5b5f60208284031215610ce6575f80fd5b61097782610cc7565b5f81518084528060208401602086015e5f602082860101526020601f19601f83011685010191505092915050565b6001600160a01b038a8116825289811660208301528881166040830152606082018890528616608082015261012060a082018190525f90610d6090830187610cef565b82810360c0840152610d728187610cef565b6001600160601b039590951660e084015250506001600160a01b039190911661010090910152979650505050505050565b60018060a01b038816815286602082015260e060408201525f610dc960e0830188610cef565b8281036060840152610ddb8188610cef565b6001600160601b0396909616608084015250506001600160a01b039290921660a083015260c090910152949350505050565b634e487b7160e01b5f52601160045260245ffd5b8181038181111561031f5761031f610e0d565b8082018082111561031f5761031f610e0d565b634e487b7160e01b5f52603260045260245ffd5b5f60208284031215610e6b575f80fd5b5051919050565b5f60208284031215610e82575f80fd5b815161097781610ab8565b5f8060408385031215610e9e575f80fd5b8251610ea981610ab8565b9150610eb760208401610cc7565b9050925092905056fe610140604052348015610010575f80fd5b50604051615c87380380615c8783398101604081905261002f916106b9565b60015f55888888888888888587848484600461004b838261081d565b506005610058828261081d565b5050505f8061006c8361037660201b60201c565b915091508161007c57601261007e565b805b60ff1660a05250506001600160a01b0390811660805281166100b957604051631e4fbdf760e01b81525f600482015260240160405180910390fd5b6100c28161044c565b506001600160a01b0381166100ea57604051638133abd160e01b815260040160405180910390fd5b6001600160a01b031660c05283156101055761010584610468565b61010e846104b0565b505050506001600160a01b031660e052505033610100526040513090610133906105f9565b6001600160a01b039091168152602001604051809103905ff08015801561015c573d5f803e3d5ffd5b506001600160a01b0316610120819052601080546001600160601b03166c0100000000000000000000000083021790556040517f2e979f80fe4d43055c584cf4a8467c55875ea36728fc37176c05acd784eb7a73905f90a2601080546001600160601b031916670de0b6b3a76400001790556101d6610512565b6010546040516001600160601b0390911681526001600160a01b0391909116907f01fe2943baee27f47add82886c2200f910c749c461c9b63c5fe83901a53bdb499060200160405180910390a2601180546001600160601b03166c010000000000000000000000006001600160a01b038416908102919091179091556040517f0adecf76fa869b35236c53f76ec37546457966d5848d8be34a4508acdd51f7c3905f90a26001600160601b0382161561036857670de0b6b3a7640000826001600160601b031611156102bb5760405163f4df6ae560e01b815260040160405180910390fd5b6001600160a01b0381166102fb576040517fff005d6700000000000000000000000000000000000000000000000000000000815260040160405180910390fd5b601180546001600160601b0319166001600160601b03841617905561031e610512565b6040516001600160601b03841681526001600160a01b0391909116907f8fcddb702fa6c4fe68a01a3dbae30ae032fc6ce52e4aec0ce68bcc33d395cca59060200160405180910390a25b50505050505050505061093d565b60408051600481526024810182526020810180516001600160e01b031663313ce56760e01b17905290515f918291829182916001600160a01b038716916103bc916108d7565b5f60405180830381855afa9150503d805f81146103f4576040519150601f19603f3d011682016040523d82523d5f602084013e6103f9565b606091505b509150915081801561040d57506020815110155b15610440575f8180602001905181019061042791906108ed565b905060ff811161043e576001969095509350505050565b505b505f9485945092505050565b600780546001600160a01b031916905561046581610520565b50565b6212750081111561048c576040516346fedb5760e01b815260040160405180910390fd5b6201518081101561046557604051631a1593df60e11b815260040160405180910390fd5b600c8190556104bd610512565b6001600160a01b03167fd28e9b90ee9b37c5936ff84392d71f29ff18117d7e76bcee60615262a90a3f75826040516104f791815260200190565b60405180910390a250600f80546001600160c81b0319169055565b5f61051b610571565b905090565b600680546001600160a01b038381166001600160a01b0319831681179093556040519116919082907f8be0079c531659141344cd1fd0a4f28419497f9722a3daafe3b4186f6b6457e0905f90a35050565b60c0515f9033906001600160a01b031681036105f45760c051604051630c281d0f60e11b81525f60048201526001600160a01b03909116906318503a1e906024016040805180830381865afa1580156105cc573d5f803e3d5ffd5b505050506040513d601f19601f820116820180604052508101906105f09190610904565b5090505b919050565b6106f58061559283390190565b80516001600160a01b03811681146105f4575f80fd5b634e487b7160e01b5f52604160045260245ffd5b5f82601f83011261063f575f80fd5b81516001600160401b038111156106585761065861061c565b604051601f8201601f19908116603f011681016001600160401b03811182821017156106865761068661061c565b60405281815283820160200185101561069d575f80fd5b8160208501602083015e5f918101602001919091529392505050565b5f805f805f805f805f6101208a8c0312156106d2575f80fd5b6106db8a610606565b98506106e960208b01610606565b97506106f760408b01610606565b60608b0151909750955061070d60808b01610606565b60a08b01519095506001600160401b03811115610728575f80fd5b6107348c828d01610630565b60c08c015190955090506001600160401b03811115610751575f80fd5b61075d8c828d01610630565b60e08c015190945090506001600160601b038116811461077b575f80fd5b915061078a6101008b01610606565b90509295985092959850929598565b600181811c908216806107ad57607f821691505b6020821081036107cb57634e487b7160e01b5f52602260045260245ffd5b50919050565b601f82111561081857805f5260205f20601f840160051c810160208510156107f65750805b601f840160051c820191505b81811015610815575f8155600101610802565b50505b505050565b81516001600160401b038111156108365761083661061c565b61084a816108448454610799565b846107d1565b6020601f82116001811461087c575f83156108655750848201515b5f19600385901b1c1916600184901b178455610815565b5f84815260208120601f198516915b828110156108ab578785015182556020948501946001909201910161088b565b50848210156108c857868401515f19600387901b60f8161c191681555b50505050600190811b01905550565b5f82518060208501845e5f920191825250919050565b5f602082840312156108fd575f80fd5b5051919050565b5f8060408385031215610915575f80fd5b61091e83610606565b915060208301518015158114610932575f80fd5b809150509250929050565b60805160a05160c05160e0516101005161012051614b89610a095f395f8181610b1a0152818161190701528181611a5401528181611a8801528181611ad80152818161220401526123c001525f81816104d501528181611d02015261285401525f8181610be6015261310301525f8181610acb015281816135970152818161380b0152818161384601528181613e5e01528181613e870152613f7f01525f610ee601525f818161066901528181612816015281816130de015281816133c10152613d2d0152614b895ff3fe608060405234801561000f575f80fd5b50600436106104b1575f3560e01c80637cc4d9a11161026e578063be9c580011610156578063ddca3f43116100ca578063e90956cf1161008f578063e90956cf14610d0d578063ee7a4b3314610d20578063ef8b30f714610c1b578063f2fde38b14610d33578063f7d1852114610d46578063ffa1ad7414610d59575f80fd5b8063ddca3f4314610cb0578063e30c397814610cc3578063e521cb9214610cd4578063e66f53b714610ce7578063e74b981b14610cfa575f80fd5b8063c9649aa91161011b578063c9649aa914610c2e578063ce96cb7714610c36578063cfe5113714610c49578063d33219b414610c5c578063d905777e14610c65578063dd62ed3e14610c78575f80fd5b8063be9c580014610bc6578063bf47e79814610bd9578063c522498314610be1578063c63d75b614610c08578063c6e6f59214610c1b575f80fd5b8063a5f31d61116101ed578063b0e21e8a116101b2578063b0e21e8a14610b3c578063b192a84a14610b67578063b3d7f6b914610b7a578063b460af9414610b8d578063b65dbf5614610ba0578063ba08765214610bb3575f80fd5b8063a5f31d6114610ac1578063a70354a114610ac9578063a9059cbb14610aef578063ac88990c14610b02578063b0d0a79214610b15575f80fd5b806395d89b411161023357806395d89b4114610a42578063987ee78314610a4a5780639d6b4a4514610a84578063a17b313014610a97578063a362e9be14610a9f575f80fd5b80637cc4d9a1146109b757806381bc23a614610a035780638a2c7b3914610a165780638da5cb5b14610a1e57806394bf804d14610a2f575f80fd5b806343c21e861161039c57806369fe0e2d11610310578063715018a6116102d5578063715018a6146109225780637224a5121461092a578063734dc4fd1461093d578063762c31ba14610950578063787dce3d1461099c57806379ba5097146109af575f80fd5b806369fe0e2d146108ae5780636e553f65146108c15780636fec995e146108d457806370a08231146108e757806370f322171461090f575f80fd5b80634e083eb3116103615780634e083eb31461083f578063568efc07146108525780635897a06d1461085b57806362518ddf1461086e57806364df049e146108815780636623b5751461089b575f80fd5b806343c21e86146107e7578063452a9320146107f057806346904840146108035780634cdad506146105245780634dedf20e1461081d575f80fd5b806321cb4b141161043357806338d52e0f116103f857806338d52e0f146106675780633a72efdf1461068d5780633b47f3f8146106a05780633cd82a15146106b3578063402d267d146107c157806341b67833146107d4575f80fd5b806321cb4b141461062057806323b872dd146106295780632f0ae5131461063c578063313ce5671461064557806333f91ebb1461065f575f80fd5b80630a28a477116104795780630a28a4771461055a5780630e68ec951461056d57806318160ddd146106055780631ecca77c1461060d5780632010fe5914610617575f80fd5b806301e1d114146104b557806302d05d3f146104d057806306fdde031461050f57806307a2d13a14610524578063095ea7b314610537575b5f80fd5b6104bd610d79565b6040519081526020015b60405180910390f35b6104f77f000000000000000000000000000000000000000000000000000000000000000081565b6040516001600160a01b0390911681526020016104c7565b610517610d8b565b6040516104c79190614263565b6104bd610532366004614298565b610e1b565b61054a6105453660046142c3565b610e2c565b60405190151581526020016104c7565b6104bd610568366004614298565b610e4d565b6105c461057b3660046142ed565b600b6020525f9081526040902080546001909101546001600160701b03821691600160701b81046001600160881b031691600160f81b90910460ff16906001600160401b031684565b604080516001600160701b0390951685526001600160881b039093166020850152901515918301919091526001600160401b031660608201526080016104c7565b6003546104bd565b610615610e59565b005b6104bd60185481565b6104bd60155481565b61054a610637366004614308565b610eb0565b6104bd601a5481565b61064d610edf565b60405160ff90911681526020016104c7565b6013546104bd565b7f00000000000000000000000000000000000000000000000000000000000000006104f7565b61061561069b3660046142ed565b610f0f565b6106156106ae366004614353565b610f7c565b6107496106c1366004614298565b601760209081525f91825260409182902080546001820154600283015460038401546004850154600586015460068701548951608081018b5260078901548152600889015499810199909952600988015499890199909952600a90960154606088015260ff80861698610100870482169862010000909704909116969495939492939192918a565b604080519a15158b5260ff998a166020808d0191909152999098168a8901526060808b019790975260808a019590955260a089019390935260c088019190915260e08701526101008601528051610120860152928301516101408501529082015161016084015201516101808201526101a0016104c7565b6104bd6107cf3660046142ed565b611017565b6106156107e23660046143d1565b611040565b6104bd60195481565b600a546104f7906001600160a01b031681565b6010546104f790600160601b90046001600160a01b031681565b61054a61082b3660046142ed565b60096020525f908152604090205460ff1681565b61061561084d3660046143d1565b61112d565b6104bd60145481565b6106156108693660046142ed565b6111ef565b6104f761087c366004614298565b6113a6565b6011546104f790600160601b90046001600160a01b031681565b6104bd6108a93660046142ed565b6113ce565b6106156108bc366004614298565b61144e565b6104bd6108cf36600461440f565b611579565b61054a6108e2366004614442565b6115de565b6104bd6108f53660046142ed565b6001600160a01b03165f9081526001602052604090205490565b61061561091d366004614298565b611630565b6106156117e1565b610615610938366004614298565b6117f4565b61061561094b36600461446c565b6118b3565b600d54610975906001600160a01b03811690600160a01b90046001600160401b031682565b604080516001600160a01b0390931683526001600160401b039091166020830152016104c7565b6106156109aa366004614298565b611b42565b610615611c50565b600f546109dc906001600160881b03811690600160881b90046001600160401b031682565b604080516001600160881b0390931683526001600160401b039091166020830152016104c7565b610615610a113660046142ed565b611cb2565b610615611dc3565b6006546001600160a01b03166104f7565b6104bd610a3d36600461440f565b611df4565b610517611e31565b6109dc610a583660046142ed565b600e6020525f90815260409020546001600160881b03811690600160881b90046001600160401b031682565b610615610a923660046142ed565b611e40565b6012546104bd565b61054a610aad3660046142ed565b60166020525f908152604090205460ff1681565b610615611f08565b7f00000000000000000000000000000000000000000000000000000000000000006104f7565b61054a610afd3660046142c3565b611f39565b610615610b103660046142ed565b611f50565b6104f77f000000000000000000000000000000000000000000000000000000000000000081565b601154610b4f906001600160601b031681565b6040516001600160601b0390911681526020016104c7565b610615610b75366004614353565b611fc1565b6104bd610b88366004614298565b612060565b6104bd610b9b3660046144e3565b61206c565b6104bd610bae3660046142ed565b6120b3565b6104bd610bc13660046144e3565b612133565b610615610bd4366004614522565b612152565b6104bd6121dc565b6104f77f000000000000000000000000000000000000000000000000000000000000000081565b6104bd610c163660046142ed565b6122bb565b6104bd610c29366004614298565b6122d1565b6106156122dc565b6104bd610c443660046142ed565b612333565b6104bd610c57366004614591565b612346565b6104bd600c5481565b6104bd610c733660046142ed565b61256f565b6104bd610c863660046145f0565b6001600160a01b039182165f90815260026020908152604080832093909416825291909152205490565b601054610b4f906001600160601b031681565b6007546001600160a01b03166104f7565b610615610ce23660046142ed565b612597565b6008546104f7906001600160a01b031681565b610615610d083660046142ed565b61267e565b610615610d1b3660046142ed565b612762565b610615610d2e3660046142c3565b6127e2565b610615610d413660046142ed565b61297f565b6104f7610d54366004614298565b6129f0565b610517604051806040016040528060018152602001601960f91b81525081565b5f80610d836129ff565b509392505050565b606060048054610d9a9061461c565b80601f0160208091040260200160405190810160405280929190818152602001828054610dc69061461c565b8015610e115780601f10610de857610100808354040283529160200191610e11565b820191905f5260205f20905b815481529060010190602001808311610df457829003601f168201915b5050505050905090565b5f610e26825f612b0a565b92915050565b5f80610e36612b39565b9050610e43818585612b42565b5060019392505050565b5f610e26826001612b54565b610e61612b83565b600d80546001600160e01b0319169055610e79612b39565b6001600160a01b03167fc40a085ccfa20f5fd518ade5c3a77a7ecbdfbb4c75efcdca6146a8e3c841d66360405160405180910390a2565b5f80610eba612b39565b9050610ec7858285612bed565b610ed2858585612c69565b60019150505b9392505050565b5f610f0a817f0000000000000000000000000000000000000000000000000000000000000000614668565b905090565b610f17612cc6565b6001600160a01b0381165f818152600e6020526040902080546001600160c81b0319169055610f44612b39565b6001600160a01b03167f23edd264f2dcc193d13a29cdab4ac169d60d9b4a0e74f0303c753036d8eb1c1360405160405180910390a350565b610f84612d36565b6001600160a01b0382165f9081526016602052604090205481151560ff909116151503610fc45760405163a741a04560e01b815260040160405180910390fd5b6001600160a01b0382165f81815260166020526040808220805460ff191685151590811790915590519092917f42b85e0a6daa77392ddcaff8267fed3d6f59370a98f06e1800bad55ff9abe33791a35050565b5f80611021612d94565b905061102d815f612b54565b156110385780610ed8565b5f9392505050565b611048612e93565b604051630f159b6b60e01b815273__$f534e9a5cc3614ed641270b99faa262c3f$__90630f159b6b9061108a90600b90600e90601390889088906004016146b1565b5f60405180830381865af41580156110a4573d5f803e3d5ffd5b505050506040513d5f823e601f3d908101601f191682016040526110cb9190810190614745565b80516110df9160139160209091019061419f565b506110e8612b39565b6001600160a01b03167f834ae37621cd31f2636b1cb6f1bded844d79ecf755af866b5d896da642d7b5676013604051611121919061480d565b60405180910390a25050565b611135612e93565b60405163220ec4ed60e21b815273__$f534e9a5cc3614ed641270b99faa262c3f$__9063883b13b49061117190600b908690869060040161485b565b5f6040518083038186803b158015611187575f80fd5b505af4158015611199573d5f803e3d5ffd5b506111ac925060129150849050836141fe565b506111b5612b39565b6001600160a01b03167fb07686dd0abe7422b9801e8f38bafd24669a65591071f11120c2f6a7c175813e83836040516111219291906148a4565b6111f7612f0d565b6001600160a01b0381165f908152600b60205260409020600101546001600160401b031615611239576040516324d9026760e11b815260040160405180910390fd5b6001600160a01b0381165f908152600b6020526040902054600160701b90046001600160881b03161561127f5760405163624718b960e11b815260040160405180910390fd5b6001600160a01b0381165f908152600b6020526040902054600160f81b900460ff166112ce57604051632215cda760e01b81526001600160a01b03821660048201526024015b60405180910390fd5b6001600160a01b0381165f908152600e6020526040902054600160881b90046001600160401b03161561131f57604051634fc6b6fd60e01b81526001600160a01b03821660048201526024016112c5565b600c5461132c90426148f0565b6001600160a01b0382165f818152600b60205260409020600101805467ffffffffffffffff19166001600160401b03939093169290921790915561136e612b39565b6001600160a01b03167f354f25f4208ab6528fb2d016019c0e2a66f51376cbb2cc8571064779735d348560405160405180910390a350565b601381815481106113b5575f80fd5b5f918252602090912001546001600160a01b0316905081565b6001600160a01b0381165f818152600b602052604080822054905163266d6a8360e11b81526001600160701b039091166004820152909190634cdad50690602401602060405180830381865afa15801561142a573d5f803e3d5ffd5b505050506040513d601f19601f82011682018060405250810190610e269190614903565b611456612f63565b61145e612d36565b6010546001600160601b031681036114895760405163a741a04560e01b815260040160405180910390fd5b670de0b6b3a76400008111156114b25760405163f4df6ae560e01b815260040160405180910390fd5b80158015906114d15750601054600160601b90046001600160a01b0316155b156114ef576040516333fe7c6560e21b815260040160405180910390fd5b6114f7612f8b565b601080546bffffffffffffffffffffffff19166001600160601b03831617905561151f612b39565b6010546040516001600160601b0390911681526001600160a01b0391909116907f01fe2943baee27f47add82886c2200f910c749c461c9b63c5fe83901a53bdb49906020015b60405180910390a261157660015f55565b50565b5f611582612f63565b61158a612f8b565b6115a08361159760035490565b6014545f6130aa565b9050805f036115c257604051639811e0c760e01b815260040160405180910390fd5b6115d56115cd612b39565b8385846130d1565b610e2660015f55565b5f828152601760205260408120805460ff61010090910481169084161061161857604051636ceab83360e01b815260040160405180910390fd5b60019081015460ff9093161b91909116151592915050565b611638612d36565b5f81815260176020908152604091829020825161014081018452815460ff8082161515835261010080830482168487015262010000909204168286015260018301546060808401919091526002840154608080850191909152600385015460a0850152600485015460c0850152600585015460e08501526006850154928401929092528551918201865260078401548252600884015494820194909452600983015494810194909452600a9091015491830191909152610120810191909152601a5482106117185760405162ea4baf60e71b815260040160405180910390fd5b8051156117385760405163a49b1f4b60e01b815260040160405180910390fd5b806020015160ff16816040015160ff16148015611757575060a0810151155b156117755760405163044291e960e51b815260040160405180910390fd5b5f828152601760205260408120805460ff1916600117905560a082015160198054919290916117a590849061491a565b909155505060a081015160405190815282907f2575359b9e20ba81ca810fe39d81708bfc42ddb04c7cf13e93b01d5dab6416be90602001611121565b6117e9612d36565b6117f25f61320a565b565b6117fc612d36565b600c54810361181e5760405163a741a04560e01b815260040160405180910390fd5b600f54600160881b90046001600160401b03161561184f576040516324d9026760e11b815260040160405180910390fd5b61185881613223565b600c5481111561186b576115768161326b565b600c5461187c90600f9083906132cd565b6040518181527fb3aa0ade2442acf51d06713c2d1a5a3ec0373cce969d42b53f4689f97bccf380906020015b60405180910390a150565b6118bb612f63565b5f8581526017602052604090205460ff16156118ea5760405163a49b1f4b60e01b815260040160405180910390fd5b5f6118fb60408601602087016142ed565b905081801561193b57507f00000000000000000000000000000000000000000000000000000000000000006001600160a01b0316816001600160a01b0316145b156119595760405163d287071360e01b815260040160405180910390fd5b5f86815260176020526040908190209051630746f19f60e01b815273__$ed3bb3477e1ecd8dfd661c8e534a293340$__91630746f19f916119a3919089908990899060040161492d565b5f6040518083038186803b1580156119b9575f80fd5b505af41580156119cb573d5f803e3d5ffd5b505060188054883593508392505f906119e59084906148f0565b925050819055508060195f8282546119fd919061491a565b90915550506040805182815284151560208201526001600160a01b0384169189917f1520bc7d5e90375246d20bb5072a6112776f202e2c41064abf949535e7cb706c910160405180910390a38215611ab257611a817f0000000000000000000000000000000000000000000000000000000000000000611a7b612b39565b83612b42565b611aac81837f0000000000000000000000000000000000000000000000000000000000000000613326565b50611b30565b604051639ef8cf1d60e01b81526001600160a01b038381166004830152602482018390527f00000000000000000000000000000000000000000000000000000000000000001690639ef8cf1d906044015f604051808303815f87803b158015611b19575f80fd5b505af1158015611b2b573d5f803e3d5ffd5b505050505b5050611b3b60015f55565b5050505050565b611b4a612f63565b611b52612d36565b6011546001600160601b03168103611b7d5760405163a741a04560e01b815260040160405180910390fd5b670de0b6b3a7640000811115611ba65760405163f4df6ae560e01b815260040160405180910390fd5b8015801590611bc55750601154600160601b90046001600160a01b0316155b15611be657604051600162ffa29960e01b0319815260040160405180910390fd5b611bee612f8b565b601180546bffffffffffffffffffffffff19166001600160601b038316179055611c16612b39565b6001600160a01b03167f8fcddb702fa6c4fe68a01a3dbae30ae032fc6ce52e4aec0ce68bcc33d395cca58260405161156591815260200190565b5f611c59612b39565b9050806001600160a01b0316611c776007546001600160a01b031690565b6001600160a01b031614611ca95760405163118cdaa760e01b81526001600160a01b03821660048201526024016112c5565b6115768161320a565b6001600160a01b0381165f908152600e6020526040902054600160881b90046001600160401b0316611ce38161335b565b6040516367c1def960e01b81526001600160a01b0383811660048301527f000000000000000000000000000000000000000000000000000000000000000016906367c1def990602401602060405180830381865afa158015611d47573d5f803e3d5ffd5b505050506040513d601f19601f82011682018060405250810190611d6b9190614984565b611d935760405163320b1e2560e21b81526001600160a01b03831660048201526024016112c5565b6001600160a01b0382165f908152600e6020526040902054611dbf9083906001600160881b031661339c565b5050565b600f54600160881b90046001600160401b0316611ddf8161335b565b600f54611576906001600160881b031661326b565b5f611dfd612f63565b611e05612f8b565b611e1c83611e1260035490565b601454600161349b565b90506115d5611e29612b39565b8383866130d1565b606060058054610d9a9061461c565b611e48612d36565b600a546001600160a01b0390811690821603611e775760405163a741a04560e01b815260040160405180910390fd5b600d54600160a01b90046001600160401b031615611ea8576040516324d9026760e11b815260040160405180910390fd5b600a546001600160a01b0316611ec157611576816134b9565b600c54611ed290600d908390613527565b6040516001600160a01b038216907f7633313af54753bce8a149927263b1a55eba857ba4ef1d13c6aee25d384d3c4b905f90a250565b600d54600160a01b90046001600160401b0316611f248161335b565b600d54611576906001600160a01b03166134b9565b5f80611f43612b39565b9050610e43818585612c69565b611f58612cc6565b6001600160a01b0381165f818152600b60205260409020600101805467ffffffffffffffff19169055611f89612b39565b6001600160a01b03167f8387c3346650400a72032f8bd1aa3f5f44038cf2bf32945e8eeb8a498decea7760405160405180910390a350565b611fc9612d36565b6001600160a01b0382165f9081526009602052604090205481151560ff9091161515036120095760405163a741a04560e01b815260040160405180910390fd5b6001600160a01b0382165f81815260096020908152604091829020805460ff191685151590811790915591519182527f74dc60cbc81a9472d04ad1d20e151d369c41104d655ed3f2f3091166a502cd8d9101611121565b5f610e26826001612b0a565b5f612075612f63565b61207d612f8b565b6120948461208a60035490565b60145460016130aa565b90506120aa6120a1612b39565b84848785613576565b610ed860015f55565b60405163ce96cb7760e01b81523060048201525f90610e26906001600160a01b0384169063ce96cb7790602401602060405180830381865afa1580156120fb573d5f803e3d5ffd5b505050506040513d601f19601f8201168201806040525081019061211f9190614903565b612128846113ce565b808218908211021890565b5f61213c612f63565b612147848484613326565b9050610ed860015f55565b61215a612f63565b612162612e93565b73__$f534e9a5cc3614ed641270b99faa262c3f$__634db0fdf0600b8484612188612b39565b6040518563ffffffff1660e01b81526004016121a7949392919061499f565b5f6040518083038186803b1580156121bd575f80fd5b505af41580156121cf573d5f803e3d5ffd5b50505050611dbf60015f55565b5f6121e660035490565b5f036121f157505f90565b5f6121fa6129ff565b505090505f61223d7f00000000000000000000000000000000000000000000000000000000000000006001600160a01b03165f9081526001602052604090205490565b60115490915082906001600160601b031615612285576011545f906122759085906001600160601b0316670de0b6b3a76400006136e0565b9050612281818561491a565b9150505b5f61229082846148f0565b90506019548111156122b0576019546122a9908261491a565b94506122b4565b5f94505b5050505090565b5f806122c5612d94565b9050610ed8815f612b54565b5f610e26825f612b54565b6122e4612b83565b600f80546001600160c81b03191690556122fc612b39565b6001600160a01b03167f921828337692c347c634c5d2aacbc7b756014674bd236f3cc2058d8e284a951b60405160405180910390a2565b5f61233d82613790565b50909392505050565b5f61234f612f63565b5f612358612b39565b6001600160a01b0381165f9081526016602052604090205490915060ff1615801561239157506006546001600160a01b03828116911614155b156123af5760405163089f849560e01b815260040160405180910390fd5b6123b7612f8b565b5f6019546123f97f00000000000000000000000000000000000000000000000000000000000000006001600160a01b03165f9081526001602052604090205490565b612403919061491a565b90508085111561243057604051631534782f60e01b815260048101869052602481018290526044016112c5565b601a545f818152601760209081526040918290208251630f4d63d160e21b8152600481019190915260248101899052604481018d9052873560648201529087013560848201529086013560a4820152606086013560c482015260e48101889052610104810189905260ff8a1661012482015290935073__$ed3bb3477e1ecd8dfd661c8e534a293340$__90633d358f4490610144015f6040518083038186803b1580156124db575f80fd5b505af41580156124ed573d5f803e3d5ffd5b505050508460195f82825461250291906148f0565b9091555050601a805460010190556040805160ff8a168152602081018b90529081018690528790879085907ff75763ca5172133970de309766529dd40c982d3171f8eb738de4546eedee5f4b9060600160405180910390a4505061256560015f55565b9695505050505050565b5f805f8061257c85613790565b92509250925061258e8383835f6130aa565b95945050505050565b61259f612f63565b6125a7612d36565b6011546001600160a01b03600160601b9091048116908216036125dd5760405163a741a04560e01b815260040160405180910390fd5b6001600160a01b0381161580156125fe57506011546001600160601b031615155b1561261f57604051600162ffa29960e01b0319815260040160405180910390fd5b612627612f8b565b601180546001600160601b0316600160601b6001600160a01b038416908102919091179091556040517f0adecf76fa869b35236c53f76ec37546457966d5848d8be34a4508acdd51f7c3905f90a261157660015f55565b612686612f63565b61268e612d36565b6010546001600160a01b03600160601b9091048116908216036126c45760405163a741a04560e01b815260040160405180910390fd5b6001600160a01b0381161580156126e557506010546001600160601b031615155b15612703576040516333fe7c6560e21b815260040160405180910390fd5b61270b612f8b565b601080546001600160601b0316600160601b6001600160a01b038416908102919091179091556040517f2e979f80fe4d43055c584cf4a8467c55875ea36728fc37176c05acd784eb7a73905f90a261157660015f55565b61276a612d36565b6008546001600160a01b03908116908216036127995760405163a741a04560e01b815260040160405180910390fd5b600880546001600160a01b0319166001600160a01b0383169081179091556040517fbd0a63c12948fbc9194a5839019f99c9d71db924e5c70018265bc778b8f1a506905f90a250565b6127ea612f63565b6127f2612f0d565b5f8073__$52410b9ebe69bc4e2de9cfcceebb4bff07$__633e877866600b600e87877f00000000000000000000000000000000000000000000000000000000000000006040516367c1def960e01b81526001600160a01b038c811660048301527f000000000000000000000000000000000000000000000000000000000000000016906367c1def990602401602060405180830381865afa158015612899573d5f803e3d5ffd5b505050506040513d601f19601f820116820180604052508101906128bd9190614984565b600c546128c8612b39565b6040516001600160e01b031960e08b901b168152600481019890985260248801969096526001600160a01b03948516604488015260648701939093529083166084860152151560a485015260c48401521660e4820152610104016040805180830381865af415801561293c573d5f803e3d5ffd5b505050506040513d601f19601f820116820180604052508101906129609190614a13565b91509150811561297457612974848261339c565b5050611dbf60015f55565b612987612d36565b600780546001600160a01b0383166001600160a01b031990911681179091556129b86006546001600160a01b031690565b6001600160a01b03167f38d16b8cac22d99fc7c124b9cd0de2d3fa1faef420bfe791d8c362d765e2270060405160405180910390a350565b601281815481106113b5575f80fd5b5f805f805f5b601354811015612a57575f60138281548110612a2357612a23614a4b565b5f918252602090912001546001600160a01b03169050612a42816113ce565b612a4c90846148f0565b925050600101612a05565b50601454601554612a68908261491a565b821015612a8057612a79828261491a565b9250612a86565b60155492505b612a9083836148f0565b93505f612a9d828661491a565b90508015801590612ab857506010546001600160601b031615155b15612b02576010545f90612adf9083906001600160601b0316670de0b6b3a76400006136e0565b9050612afe81612aee60035490565b612af8848a61491a565b5f6130aa565b9650505b505050909192565b5f805f612b156129ff565b509150915061258e8583612b2860035490565b612b3291906148f0565b838761349b565b5f610f0a6137ff565b612b4f83838360016138bf565b505050565b5f805f612b5f6129ff565b509150915061258e8583612b7260035490565b612b7c91906148f0565b83876130aa565b5f612b8c613991565b9050612ba06006546001600160a01b031690565b6001600160a01b0316816001600160a01b031614158015612bcf5750600a546001600160a01b03828116911614155b1561157657604051637cf97e4d60e11b815260040160405180910390fd5b6001600160a01b038381165f908152600260209081526040808320938616835292905220545f19811015612c635781811015612c5557604051637dc7a0d960e11b81526001600160a01b038416600482015260248101829052604481018390526064016112c5565b612c6384848484035f6138bf565b50505050565b6001600160a01b038316612c9257604051634b637e8f60e11b81525f60048201526024016112c5565b6001600160a01b038216612cbb5760405163ec442f0560e01b81525f60048201526024016112c5565b612b4f83838361399c565b5f612ccf613991565b600a549091506001600160a01b03808316911614801590612cfe57506008546001600160a01b03828116911614155b8015612d1857506006546001600160a01b03828116911614155b156115765760405163d080fa3160e01b815260040160405180910390fd5b612d3e612b39565b6001600160a01b0316612d596006546001600160a01b031690565b6001600160a01b0316146117f257612d6f612b39565b60405163118cdaa760e01b81526001600160a01b0390911660048201526024016112c5565b5f805b601254811015612e8f575f60128281548110612db557612db5614a4b565b5f9182526020808320909101546001600160a01b0316808352600b90915260408220549092506001600160881b03600160701b9091041690819003612dfb575050612e87565b5f612e05836113ce565b9050612e778183038284110260405163402d267d60e01b81523060048201526001600160a01b0386169063402d267d90602401602060405180830381865afa158015612e53573d5f803e3d5ffd5b505050506040513d601f19601f820116820180604052508101906121289190614903565b612e8190866148f0565b94505050505b600101612d97565b5090565b5f612e9c613991565b6001600160a01b0381165f9081526009602052604090205490915060ff16158015612ed557506008546001600160a01b03828116911614155b8015612eef57506006546001600160a01b03828116911614155b156115765760405163f7137c0f60e01b815260040160405180910390fd5b5f612f16613991565b6008549091506001600160a01b03808316911614801590612f4557506006546001600160a01b03828116911614155b15611576576040516332a2673b60e21b815260040160405180910390fd5b60025f5403612f8557604051633ee5aeb560e01b815260040160405180910390fd5b60025f55565b5f805f612f966129ff565b925092509250612fa582613ac2565b60158190556040518181527f548669ea9bcc24888e6d74a69c9865fa98d795686853b8aa3eb87814261bbb719060200160405180910390a15f8315613063576011546001600160601b031615613046576011546130159085906001600160601b0316670de0b6b3a76400006136e0565b9050613021818561491a565b935080156130465760115461304690600160601b90046001600160a01b031682613af7565b60105461306390600160601b90046001600160a01b031685613af7565b60408051848152602081018690529081018290527f875352fb3fadeb8c0be7cbbe8ff761b308fa7033470cd0287f02f3436fd76cb99060600160405180910390a150505050565b5f61258e6130bb620f4240866148f0565b6130c8620f4240866148f0565b87919085613b2b565b6131276001600160a01b037f0000000000000000000000000000000000000000000000000000000000000000168530857f0000000000000000000000000000000000000000000000000000000000000000613b6d565b6131318382613af7565b826001600160a01b0316846001600160a01b03167fdcbc1c05240f31ff3ad067ef1ee35ce4997762752e3a095284754544f4c709d7848460405161317f929190918252602082015260400190565b60405180910390a36040516317275a9960e31b8152600b6004820152601260248201526044810183905273__$2fb31688bc376cc20c94de11c2b2d0a9e4$__9063b93ad4c8906064015f6040518083038186803b1580156131de575f80fd5b505af41580156131f0573d5f803e3d5ffd5b50505050612c638260145461320591906148f0565b613ac2565b600780546001600160a01b031916905561157681613ca9565b62127500811115613247576040516346fedb5760e01b815260040160405180910390fd5b6201518081101561157657604051631a1593df60e11b815260040160405180910390fd5b600c819055613278612b39565b6001600160a01b03167fd28e9b90ee9b37c5936ff84392d71f29ff18117d7e76bcee60615262a90a3f75826040516132b291815260200190565b60405180910390a250600f80546001600160c81b0319169055565b825470ffffffffffffffffffffffffffffffffff19166001600160881b0383161783556132fa81426148f0565b83546001600160401b0391909116600160881b0267ffffffffffffffff60881b19909116179092555050565b5f61332f612f8b565b6133458461333c60035490565b6014545f61349b565b9050610ed8613352612b39565b84848488613576565b805f0361337b5760405163e5f408a560e01b815260040160405180910390fd5b804210156115765760405163333bd2cb60e11b815260040160405180910390fd5b5f73__$52410b9ebe69bc4e2de9cfcceebb4bff07$__634cb39ed1600b600e601387877f00000000000000000000000000000000000000000000000000000000000000006133e8612b39565b6040516001600160e01b031960e08a901b1681526004810197909752602487019590955260448601939093526001600160a01b0391821660648601526001600160881b0316608485015290811660a48401521660c482015260e401602060405180830381865af415801561345e573d5f803e3d5ffd5b505050506040513d601f19601f820116820180604052508101906134829190614903565b90508015612b4f57612b4f8160145461320591906148f0565b5f61258e6134ac620f4240856148f0565b6130c8620f4240876148f0565b600a80546001600160a01b0319166001600160a01b0383169081179091556134df612b39565b6001600160a01b03167fcb11cc8aade2f5a556749d1b2380d108a16fac3431e6a5d5ce12ef9de0bd76e360405160405180910390a350600d80546001600160e01b0319169055565b82546001600160a01b0319166001600160a01b03831617835561354a81426148f0565b83546001600160401b0391909116600160a01b0267ffffffffffffffff60a01b19909116179092555050565b60405163110ac5cb60e21b81526001600160a01b0385811660048301525f917f00000000000000000000000000000000000000000000000000000000000000009091169063442b172c90602401602060405180830381865afa1580156135de573d5f803e3d5ffd5b505050506040513d601f19601f820116820180604052508101906136029190614a5f565b90506001600160a01b0381161580159061362e5750846001600160a01b0316816001600160a01b031614155b1561364c576040516399253a5160e01b815260040160405180910390fd5b60145461365f9084810390851002613ac2565b6040516272701560e61b8152600b6004820152601360248201526044810184905273__$2fb31688bc376cc20c94de11c2b2d0a9e4$__90631c9c0540906064015f6040518083038186803b1580156136b5575f80fd5b505af41580156136c7573d5f803e3d5ffd5b505050506136d88686868686613cfa565b505050505050565b5f805f6136ed8686613dba565b91509150815f036137115783818161370757613707614a7a565b0492505050610ed8565b818411613728576137286003851502601118613dd6565b5f848688095f868103871696879004966002600389028118808a02820302808a02820302808a02820302808a02820302808a02820302808a02909103029181900381900460010185841190960395909502919093039390930492909217029150509392505050565b5f805f8061379c6129ff565b5092509050806137ab60035490565b6137b591906148f0565b92506137e06137d8866001600160a01b03165f9081526001602052604090205490565b84845f61349b565b93506137eb84613de7565b6137f5908561491a565b9350509193909250565b5f336001600160a01b037f00000000000000000000000000000000000000000000000000000000000000001681036138ba57604051630c281d0f60e11b81525f60048201527f00000000000000000000000000000000000000000000000000000000000000006001600160a01b0316906318503a1e906024016040805180830381865afa158015613892573d5f803e3d5ffd5b505050506040513d601f19601f820116820180604052508101906138b69190614a8e565b5090505b919050565b6001600160a01b0384166138e85760405163e602df0560e01b81525f60048201526024016112c5565b6001600160a01b03831661391157604051634a1406b160e11b81525f60048201526024016112c5565b6001600160a01b038085165f9081526002602090815260408083209387168352929052208290558015612c6357826001600160a01b0316846001600160a01b03167f8c5be1e5ebec7d5bd14f71427d1e84f3dd0314c0f7b2291e5b200ac8c7c3b9258460405161398391815260200190565b60405180910390a350505050565b5f610f0a6001613e53565b6001600160a01b0383166139c6578060035f8282546139bb91906148f0565b90915550613a369050565b6001600160a01b0383165f9081526001602052604090205481811015613a185760405163391434e360e21b81526001600160a01b038516600482015260248101829052604481018390526064016112c5565b6001600160a01b0384165f9081526001602052604090209082900390555b6001600160a01b038216613a5257600380548290039055613a70565b6001600160a01b0382165f9081526001602052604090208054820190555b816001600160a01b0316836001600160a01b03167fddf252ad1be2c89b69c2b068fc378daa952ba7f163c4a11628f55a4df523b3ef83604051613ab591815260200190565b60405180910390a3505050565b60148190556040518181527f15c027cc4fd826d986cad358803439f7326d3aa4ed969ff90dbee4bc150f68e9906020016118a8565b6001600160a01b038216613b205760405163ec442f0560e01b81525f60048201526024016112c5565b611dbf5f838361399c565b5f613b58613b388361403b565b8015613b5357505f8480613b4e57613b4e614a7a565b868809115b151590565b613b638686866136e0565b61258e91906148f0565b5f806001600160a01b03831615613bfb5760405163927da10560e01b81526001600160a01b038781166004830152888116602483015230604483015284169063927da10590606401606060405180830381865afa158015613bd0573d5f803e3d5ffd5b505050506040513d601f19601f82011682018060405250810190613bf49190614ad0565b5090925090505b83826001600160a01b031610158015613c1c5750428165ffffffffffff1610155b15613c9457604051631b63c28b60e11b81526001600160a01b0387811660048301528681166024830152858116604483015288811660648301528416906336c78516906084015f604051808303815f87803b158015613c79575f80fd5b505af1158015613c8b573d5f803e3d5ffd5b50505050613ca0565b613ca087878787614067565b50505050505050565b600680546001600160a01b038381166001600160a01b0319831681179093556040519116919082907f8be0079c531659141344cd1fd0a4f28419497f9722a3daafe3b4186f6b6457e0905f90a35050565b826001600160a01b0316856001600160a01b031614613d1e57613d1e838683612bed565b613d2883826140ce565b613d537f00000000000000000000000000000000000000000000000000000000000000008584614102565b826001600160a01b0316846001600160a01b0316866001600160a01b03167ffbde797d201c681b91056529119e0b02407c7bb96a4a2c75c01fc9667232c8db8585604051613dab929190918252602082015260400190565b60405180910390a45050505050565b5f805f1983850993909202808410938190039390930393915050565b634e487b715f52806020526024601cfd5b5f805b601354811015613e4c575f60138281548110613e0857613e08614a4b565b5f918252602090912001546001600160a01b03169050613e34613e2a826120b3565b8086039086110290565b9350835f03613e435750613e4c565b50600101613dea565b5090919050565b5f6001600160a01b037f0000000000000000000000000000000000000000000000000000000000000000163303614034575f7f00000000000000000000000000000000000000000000000000000000000000006001600160a01b0316633a1a3a1d6040518163ffffffff1660e01b8152600401602060405180830381865afa158015613ee1573d5f803e3d5ffd5b505050506040513d601f19601f82011682018060405250810190613f059190614903565b905060ff60b81b8116151580613f20575060ff60b01b811615155b80613f30575060ff60a81b811615155b15613f4e5760405163ea8e4eb560e01b815260040160405180910390fd5b6001600160a01b0381168315610ed85760405163110ac5cb60e21b81526001600160a01b0382811660048301525f917f00000000000000000000000000000000000000000000000000000000000000009091169063442b172c90602401602060405180830381865afa158015613fc6573d5f803e3d5ffd5b505050506040513d601f19601f82011682018060405250810190613fea9190614a5f565b90506001600160a01b038116158015906140165750816001600160a01b0316816001600160a01b031614155b15610d835760405163ea8e4eb560e01b815260040160405180910390fd5b5033919050565b5f600282600381111561405057614050614b12565b61405a9190614b26565b60ff166001149050919050565b6040516001600160a01b038481166024830152838116604483015260648201839052612c639186918216906323b872dd906084015b604051602081830303815290604052915060e01b6020820180516001600160e01b038381831617835250505050614133565b6001600160a01b0382166140f757604051634b637e8f60e11b81525f60048201526024016112c5565b611dbf825f8361399c565b6040516001600160a01b03838116602483015260448201839052612b4f91859182169063a9059cbb9060640161409c565b5f8060205f8451602086015f885af180614152576040513d5f823e3d81fd5b50505f513d91508115614169578060011415614176565b6001600160a01b0384163b155b15612c6357604051635274afe760e01b81526001600160a01b03851660048201526024016112c5565b828054828255905f5260205f209081019282156141f2579160200282015b828111156141f257825182546001600160a01b0319166001600160a01b039091161782556020909201916001909101906141bd565b50612e8f92915061424f565b828054828255905f5260205f209081019282156141f2579160200282015b828111156141f25781546001600160a01b0319166001600160a01b0384351617825560209092019160019091019061421c565b5b80821115612e8f575f8155600101614250565b602081525f82518060208401528060208501604085015e5f604082850101526040601f19601f83011684010191505092915050565b5f602082840312156142a8575f80fd5b5035919050565b6001600160a01b0381168114611576575f80fd5b5f80604083850312156142d4575f80fd5b82356142df816142af565b946020939093013593505050565b5f602082840312156142fd575f80fd5b8135610ed8816142af565b5f805f6060848603121561431a575f80fd5b8335614325816142af565b92506020840135614335816142af565b929592945050506040919091013590565b8015158114611576575f80fd5b5f8060408385031215614364575f80fd5b823561436f816142af565b9150602083013561437f81614346565b809150509250929050565b5f8083601f84011261439a575f80fd5b5081356001600160401b038111156143b0575f80fd5b6020830191508360208260051b85010111156143ca575f80fd5b9250929050565b5f80602083850312156143e2575f80fd5b82356001600160401b038111156143f7575f80fd5b6144038582860161438a565b90969095509350505050565b5f8060408385031215614420575f80fd5b82359150602083013561437f816142af565b803560ff811681146138ba575f80fd5b5f8060408385031215614453575f80fd5b8235915061446360208401614432565b90509250929050565b5f805f805f85870360c0811215614481575f80fd5b863595506060601f1982011215614496575f80fd5b5060208601935060808601356001600160401b038111156144b5575f80fd5b6144c18882890161438a565b90945092505060a08601356144d581614346565b809150509295509295909350565b5f805f606084860312156144f5575f80fd5b833592506020840135614507816142af565b91506040840135614517816142af565b809150509250925092565b5f8060208385031215614533575f80fd5b82356001600160401b03811115614548575f80fd5b8301601f81018513614558575f80fd5b80356001600160401b0381111561456d575f80fd5b8560208260061b8401011115614581575f80fd5b6020919091019590945092505050565b5f805f805f808688036101208112156145a8575f80fd5b873596506145b860208901614432565b955060408801359450606088013593506080808901359350609f19820112156145df575f80fd5b5060a0870190509295509295509295565b5f8060408385031215614601575f80fd5b823561460c816142af565b9150602083013561437f816142af565b600181811c9082168061463057607f821691505b60208210810361464e57634e487b7160e01b5f52602260045260245ffd5b50919050565b634e487b7160e01b5f52601160045260245ffd5b60ff8181168382160190811115610e2657610e26614654565b8183525f6001600160fb1b03831115614698575f80fd5b8260051b80836020870137939093016020019392505050565b5f608082018783528660208401526080604084015280865480835260a085019150875f5260205f2092505f5b818110156147045783546001600160a01b03168352600193840193602090930192016146dd565b50508381036060850152614719818688614681565b9998505050505050505050565b634e487b7160e01b5f52604160045260245ffd5b80516138ba816142af565b5f60208284031215614755575f80fd5b81516001600160401b0381111561476a575f80fd5b8201601f8101841361477a575f80fd5b80516001600160401b0381111561479357614793614726565b8060051b604051601f19603f83011681018181106001600160401b03821117156147bf576147bf614726565b6040529182526020818401810192908101878411156147dc575f80fd5b6020850194505b83851015614802576147f48561473a565b8152602094850194016147e3565b509695505050505050565b602080825282548282018190525f848152918220906040840190835b818110156148505783546001600160a01b0316835260019384019360209093019201614829565b509095945050505050565b83815260406020820181905281018290525f8360608301825b85811015614802578235614887816142af565b6001600160a01b0316825260209283019290910190600101614874565b602080825281018290525f8360408301825b858110156148e65782356148c9816142af565b6001600160a01b03168252602092830192909101906001016148b6565b5095945050505050565b80820180821115610e2657610e26614654565b5f60208284031215614913575f80fd5b5051919050565b81810381811115610e2657610e26614654565b84815283356020808301919091525f90850135614949816142af565b6001600160a01b031660408381019190915260ff90614969908701614432565b16606083015260a0608083015261256560a083018486614681565b5f60208284031215614994575f80fd5b8151610ed881614346565b84815260606020820181905281018390525f8460808301825b868110156149f25782356149cb816142af565b6001600160a01b0316825260208381013590830152604092830192909101906001016149b8565b506001600160a01b0394909416604093909301929092525090949350505050565b5f8060408385031215614a24575f80fd5b8251614a2f81614346565b60208401519092506001600160881b038116811461437f575f80fd5b634e487b7160e01b5f52603260045260245ffd5b5f60208284031215614a6f575f80fd5b8151610ed8816142af565b634e487b7160e01b5f52601260045260245ffd5b5f8060408385031215614a9f575f80fd5b8251614aaa816142af565b602084015190925061437f81614346565b805165ffffffffffff811681146138ba575f80fd5b5f805f60608486031215614ae2575f80fd5b8351614aed816142af565b9250614afb60208501614abb565b9150614b0960408501614abb565b90509250925092565b634e487b7160e01b5f52602160045260245ffd5b5f60ff831680614b4457634e487b7160e01b5f52601260045260245ffd5b8060ff8416069150509291505056fea264697066735822122062ddd04c866af3dcd5285797df8bb25d4695113f0236237d163996bb4fcc769864736f6c634300081a003360a0604052348015600e575f80fd5b506040516106f53803806106f5833981016040819052602b91603b565b6001600160a01b03166080526066565b5f60208284031215604a575f80fd5b81516001600160a01b0381168114605f575f80fd5b9392505050565b60805161064f6100a65f395f818160830152818160e70152818161018b015281816101cc01528181610255015281816102c90152610314015261064f5ff3fe608060405234801561000f575f80fd5b506004361061003f575f3560e01c8063132db1e5146100435780639ef8cf1d14610069578063e7b219a31461007e575b5f80fd5b61005661005136600461056d565b6100bd565b6040519081526020015b60405180910390f35b61007c6100773660046105b6565b6102be565b005b6100a57f000000000000000000000000000000000000000000000000000000000000000081565b6040516001600160a01b039091168152602001610060565b5f825f036100de57604051631f2a200560e01b815260040160405180910390fd5b8115610246575f7f00000000000000000000000000000000000000000000000000000000000000006001600160a01b03166338d52e0f6040518163ffffffff1660e01b8152600401602060405180830381865afa158015610141573d5f803e3d5ffd5b505050506040513d601f19601f8201168201806040525081019061016591906105e0565b905061017c6001600160a01b038216333087610382565b6101b06001600160a01b0382167f0000000000000000000000000000000000000000000000000000000000000000866103ef565b604051636e553f6560e01b8152600481018590523060248201527f00000000000000000000000000000000000000000000000000000000000000006001600160a01b031690636e553f65906044016020604051808303815f875af115801561021a573d5f803e3d5ffd5b505050506040513d601f19601f8201168201806040525081019061023e9190610602565b91505061027d565b508161027d6001600160a01b037f000000000000000000000000000000000000000000000000000000000000000016333084610382565b604080518481526020810183905233917f1b6f4a41c8f2f8a60a302cdb13ba1160df3bd66f63df8d843691301c0c804e4e910160405180910390a292915050565b336001600160a01b037f0000000000000000000000000000000000000000000000000000000000000000161461030757604051632df1cb8360e11b815260040160405180910390fd5b61033b6001600160a01b037f000000000000000000000000000000000000000000000000000000000000000016838361047e565b816001600160a01b03167f18c19203fed2316157364d2734d06d8167d7bf17faa313d512e6701e0dae88378260405161037691815260200190565b60405180910390a25050565b6040516001600160a01b0384811660248301528381166044830152606482018390526103e99186918216906323b872dd906084015b604051602081830303815290604052915060e01b6020820180516001600160e01b0383818316178352505050506104b4565b50505050565b604080516001600160a01b038416602482015260448082018490528251808303909101815260649091019091526020810180516001600160e01b031663095ea7b360e01b1790526104408482610524565b6103e9576040516001600160a01b0384811660248301525f604483015261047491869182169063095ea7b3906064016103b7565b6103e984826104b4565b6040516001600160a01b038381166024830152604482018390526104af91859182169063a9059cbb906064016103b7565b505050565b5f8060205f8451602086015f885af1806104d3576040513d5f823e3d81fd5b50505f513d915081156104ea5780600114156104f7565b6001600160a01b0384163b155b156103e957604051635274afe760e01b81526001600160a01b038516600482015260240160405180910390fd5b5f805f8060205f8651602088015f8a5af192503d91505f519050828015610563575081156105555780600114610563565b5f866001600160a01b03163b115b9695505050505050565b5f806040838503121561057e575f80fd5b8235915060208301358015158114610594575f80fd5b809150509250929050565b6001600160a01b03811681146105b3575f80fd5b50565b5f80604083850312156105c7575f80fd5b82356105d28161059f565b946020939093013593505050565b5f602082840312156105f0575f80fd5b81516105fb8161059f565b9392505050565b5f60208284031215610612575f80fd5b505191905056fea2646970667358221220f8defb3600832719cad2b6697295fc9c2bad6a111d1e17bf5a7f843fe6141e5f64736f6c634300081a0033a26469706673582212205f7d9a8a1312a01c646809c721e21b8264047ce705f153f7335fb9c95c4f973064736f6c634300081a0033","linkReferences":{"src_chain/arbitrum/src/ample/libraries/AmplePayoutLib.sol":{"AmplePayoutLib":[{"start":13391,"length":20},{"start":16256,"length":20}]},"src_chain/arbitrum/src/libraries/CuratorLib.sol":{"CuratorLib":[{"start":17103,"length":20},{"start":20088,"length":20}]},"src_chain/arbitrum/src/libraries/ReallocateLib.sol":{"ReallocateLib":[{"start":11056,"length":20},{"start":11293,"length":20},{"start":15421,"length":20}]},"src_chain/arbitrum/src/libraries/StrategyLib.sol":{"StrategyLib":[{"start":19588,"length":20},{"start":20827,"length":20}]}}},"methodIdentifiers":{"EVC()":"a70354a1","acceptOwnership()":"79ba5097","createAmpleEarn(address,uint256,address,string,string,uint96,address,bytes32)":"6aacc625","getVaultListLength()":"71c6d03c","getVaultListSlice(uint256,uint256)":"ee766bea","isStrategyAllowed(address)":"67c1def9","isVault(address)":"652b9b41","owner()":"8da5cb5b","pendingOwner()":"e30c3978","permit2Address()":"c5224983","renounceOwnership()":"715018a6","setPerspective(address)":"c80ec975","supportedPerspective()":"a7e6491b","transferOwnership(address)":"f2fde38b","vaultList(uint256)":"2d8efbc5"},"id":50}